:100000000C944B000C9475000C9475000C947500C6
:100010000C9475000C9475000C9475000C9475008C
:100020000C9475000C9475000C9475000C9475007C
:100030000C9475000C9475000C9475000C9475006C
:100040000C940F0A0C9475000C94E7030C94750043
:100050000C9475000C94A80A0C9475000C9475000F
:100060000C9475000C9475000C9475000C9475003C
:100070000C9475000C9475000C9475000C9475002C
:100080000C94E00A0C9475000C9475000C947500A7
:100090000C947500480C11241FBECFEFD0E1DEBFD9
:1000A000CDBF13E0A0E0B1E0E6E2FEE100E00BBF6F
:1000B00002C007900D92A432B107D9F723E0A4E261
:1000C000B3E001C01D92AA3EB207E1F710E0CBE415
:1000D000D0E004C02197FE010E94AF0DCA34D107C1
:1000E000C9F70E944C0C0C94110F0C940000CF9394
:1000F000DF93EC01188219821A821B821C821D82F6
:100100001E821F82188619861A861B861C86FB0192
:1001100080819181A281B38188279927AF73BB2702
:10012000CD01AA27BB278C309105A105B10521F08F
:100130000D97A105B10529F464E273E0CE010E9498
:100140006408CE01DF91CF9108958F929F92AF9274
:10015000CF92EF920F93CF93DF93CDB7DEB7E997AE
:100160000FB6F894DEBF0FBECDBF198E1A8E1B8E50
:100170001C8E1F8E1E8E1D8EBE016F5F7F4F85E30E
:1001800093E00E94D408882309F49FC018A219A202
:100190001AA21BA21CA21DA21EA21FA218A619A66B
:1001A0001AA61BA61CA621E0AE014F5F5F4F64E2BA
:1001B00073E0CE018D960E94C9078DE0FE01BD96C9
:1001C000DE01909601900D928A95E1F7BE01605E86
:1001D0007F4F8DE393E00E94A40822E0AE01475FC9
:1001E0005F4F64E273E0CE018D960E94C9078DE0F7
:1001F000FE01BD96DE01909601900D928A95E1F781
:10020000BE01605E7F4F8DE393E00E94A40883E00F
:100210008F93812CAB8CCA8CEC8C098D20E040E054
:1002200064E273E0CE018D960E94E2068DE0FE014D
:10023000BD96DE01909601900D928A95E1F7BE0180
:10024000605E7F4F8DE393E00E94A4088E8C9F8CAC
:1002500084E08F9382E0A82E92E0C92E2EE1E22E58
:100260000EE121E04AE064E273E0CE018D960E9447
:1002700013068DE0FE01BD96DE01909601900D9271
:100280008A95E1F7BE01605E7F4F8DE393E00E94A7
:10029000A40826E0AE014F5E5F4F64E273E0CE013A
:1002A0008D960E94C9078DE0FE01BD96DE019096F5
:1002B00001900D928A95E1F7BE01605E7F4F8DE35C
:1002C00093E00E94A4080F900F90E9960FB6F8945F
:1002D000DEBF0FBECDBFDF91CF910F91EF90CF90DA
:1002E000AF909F908F9008951F93CF93DF93CDB7DA
:1002F000DEB7A7970FB6F894DEBF0FBECDBF182F9D
:100300001E861F86188A198A1A8A1B8A1C8A1D8AC9
:100310001E8A1F8A188E198E1A8E19821A821B82C3
:100320001C821D821E821F82188619861A861B86D1
:100330001C861D86BE01625F7F4F85E493E00E94AC
:10034000D408882309F466C04E855F856889798959
:1003500044275527607C73704115510580EC680770
:10036000710529F141155105610582E07807B9F061
:10037000452B462B472B09F04DC029E043E064E2B2
:1003800073E0CE014B960E94CF048DE0FE017B9678
:10039000DE01119601900D928A95E1F734C0BE01FD
:1003A000625F7F4F84E293E00E94E60933C0BE01A2
:1003B000625F7F4F84E293E00E94E609882351F157
:1003C000BE01625F7F4FCE014B960E9477008DE0A9
:1003D000FE017B96DE01119601900D928A95E1F760
:1003E00089819A81AB81BC81892B8A2B8B2B91F0DF
:1003F000112329F0113039F4A39A80E002C0A398A8
:1004000081E00E946609BE016F5F7F4F8DE393E03C
:100410000E94A408A7960FB6F894DEBF0FBECDBF0A
:10042000DF91CF911F9108954F925F926F927F92CB
:100430008F929F92AF92BF92FF920F931F93CF9391
:10044000DF93CDB7DEB72D970FB6F894DEBF0FBEA2
:10045000CDBFF090ED001092ED008091EE0085FF91
:1004600094C01092EE0019821A821B821C821D8297
:100470001E821F82188619861A861B861C861D8678
:100480008091EF008F708D879091F0004091F10086
:100490008090F2000091F30050E060E070E02A01EB
:1004A0003B0125E0440C551C661C771C2A95D1F7AE
:1004B000492F50E060E070E033E0769567955795FE
:1004C00047953A95D1F74429552966297729912CE2
:1004D000A12CB12CEDE0880C991CAA1CBB1CEA9540
:1004E000D1F7482959296A297B2910E020E030E01A
:1004F000F5E1000F111F221F331FFA95D1F7402B92
:10050000512B622B732B49835A836B837C83E82F97
:10051000F0E05F01A3E0AA0CBB1CAA95E1F7A0E004
:10052000B0E031971897EF3F8FEFF80739F120913E
:10053000FA0030E040E050E060E070E080E090E001
:1005400085010A0F1B1F0E94640D1D81212B1E8136
:10055000312B1F81412B1885512B1985612B1A8551
:10056000712B1B85812B1C85912B2D833E834F8303
:10057000588769877A878B879C87D3CFBE016F5F47
:100580007F4F85E493E00E94A40888E98093EF0000
:100590008091ED008F29807F8093ED002D960FB61E
:1005A000F894DEBF0FBECDBFDF91CF911F910F91A9
:1005B000FF90BF90AF909F908F907F906F905F90D3
:1005C0004F9008950F93CF93DF93CDB7DEB72D975C
:1005D0000FB6F894DEBF0FBECDBF19821A821B8200
:1005E0001C821D821E821F82188619861A861B860F
:1005F0001C861D86BE016F5F7F4F8DE393E00E94D6
:10060000D408882309F49FC080E18093ED0089819C
:100610009A81AB81BC8188279927A07EBF7125E193
:10062000B695A795979587952A95D1F78093F3006E
:1006300089819A81AB81BC818827907EAF71BB276D
:100640003DE0B695A795979587953A95D1F7809314
:10065000F20089819A81AB81BC81807E9F71AA273B
:10066000BB2745E0B695A795979587954A95D1F70D
:100670008093F1008981880F880F880F8093F000A4
:100680002D813E814F81588569857A858B859C8532
:1006900008E30E947F0D2093FA0020E030E040E064
:1006A00050E060E070E08B8590E000E30E947F0DF9
:1006B0002093FA007A8520E030E040E050E060E0EE
:1006C00080E090E008E20E947F0D2093FA006985A7
:1006D00020E030E040E050E070E080E090E000E2B8
:1006E0000E947F0D2093FA00588520E030E040E022
:1006F00060E070E080E090E008E10E947F0D2093D0
:10070000FA004F8120E030E050E060E070E080E0EF
:1007100090E000E10E947F0D2093FA003E8120E0EE
:1007200040E050E060E070E080E090E008E00E948F
:100730007F0D2093FA008D818093FA001092EE00D5
:1007400088E58093EF002D960FB6F894DEBF0FBEBC
:10075000CDBFDF91CF910F91089520E12093ED005F
:10076000FC01408151816281738183E076956795B8
:10077000579547958A95D1F74093F30080819181F1
:10078000A281B38125E0880F991FAA1FBB1F2A955C
:10079000D1F78093F2001092F1001092F000EAEF8E
:1007A000F0E081E0808382E0808383E0808384E0E6
:1007B000808385E0808386E0808387E0808388E093
:1007C00080831092EE0088E58093EF0008951F92D9
:1007D0000F920FB60F9211248F939F938091ED008B
:1007E000807F809331031092ED008091EE0085FFB1
:1007F00025C08091FA00809332038091FA008093A3
:1008000032038091FA00809332038091FA00809342
:1008100032038091FA00809332038091FA00809332
:1008200032038091FA00809332038091FA00809322
:10083000320380FF02C0A39801C0A39A1092EE0079
:1008400088E88093EF008091ED00807F90913103E4
:10085000892B8093ED009F918F910F900FBE0F9089
:100860001F90189581E08093D8008091D90082FD77
:10087000FCCF1092E20084E08093E30082E1809359
:10088000E4001092ED0088E98093EF001092EE00F2
:100890001092F3001092F2001092F1001092F0000A
:1008A0001092F7001092F6001092F5001092F400EA
:1008B00080E18093ED001092EF001092EE00109214
:1008C000F3001092F2001092F1001092F0001092DA
:1008D000F7001092F6001092F5001092F40082E0FA
:1008E000982F9295907F9093ED001092EF001092C8
:1008F000EE001092F3001092F2001092F1001092AC
:10090000F0001092F7001092F6001092F50010928D
:10091000F40028E030E01092FA0021503109D9F7B4
:100920008F5F8F30E9F61092DF008091D8008260EF
:100930008093D80090EA8091D90082FD03C0909303
:10094000DB00F9CF08950C9A0B9A6C9A149A1398BD
:100950000895749A089574980895CF93DF93EC01E5
:100960000E94A304C130D10531F0229741F4DF91F8
:10097000CF910C94AB04DF91CF910C94A904DF913B
:10098000CF9108959B9AA39A269A2E9A249A2C9AEC
:10099000089588EE93E00C9470090C94C5093F9279
:1009A0004F925F926F927F928F929F92AF92BF927F
:1009B000CF92DF92EF92FF920F931F93CF93DF932B
:1009C000FC01EB01C42E922E80E090E0A0ECB1E09F
:1009D00080839183A283B3832D8130E040E050E097
:1009E00060E070E080E090E000E30E94640D322E51
:1009F000432E542E652E762E872EB82FA92F2E81AA
:100A000030E040E050E060E070E080E090E008E33B
:100A10000E94640DD32CD22AE42CE32AF52CF42A6C
:100A2000162D152BA72CA62AB82CB72AB82BA92B24
:100A30002C8130E040E050E060E070E080E090E049
:100A400008E20E94640DD22AE32AF42A152BA62A72
:100A5000B72AB82BA92B2B8130E040E050E060E0B2
:100A600070E080E090E000E20E94640DD22AE32A68
:100A7000F42A152BDA2DD62BCB2DC72BB82BA92B6F
:100A8000292D30E040E050E060E070E080E090E050
:100A900000E10E94640DD22AE32AF42A152BD62BFA
:100AA000C72BB82BA92B2C2D30E040E050E060E0A4
:100AB00070E080E090E008E10E94640D2D293E295D
:100AC0004F29512B6D2B7C2B8B2B9A2B2483358319
:100AD00046835783608771878287938786E0848700
:100AE000CF01DF91CF911F910F91FF90EF90DF9099
:100AF000CF90BF90AF909F908F907F906F905F90BE
:100B00004F903F9008955F926F927F928F929F9245
:100B1000AF92BF92CF92DF92EF92FF920F931F930B
:100B2000CF93DF93FC01B42ED52FD22EC32F312FBC
:100B3000DB0118968C9190E0A0E0B0E02BE0880FEC
:100B4000991FAA1FBB1F2A95D1F7A06CB260AC29D0
:100B500080839183A283B383202F912F990F990BC8
:100B6000492F592F692F792F892F00E20E94640D98
:100B7000122F532E3A014B01C82EA92F2E2D9F2D37
:100B8000990F990B3F2D492F592F692F792F892FB5
:100B900000E30E94640D122B3529A62CA42AE72C11
:100BA000E52AF82CF62AB92DB72BC82A9A2BAD2F97
:100BB000AA0FAA0B1B29D32BBA2CBA2AEA2AFA2A83
:100BC000BA2BCA2AA92B2D2D9C2F990F990B3C2F9C
:100BD000492F592F692F792F892F00E10E94640D29
:100BE000212BD32B4B295E296F29B72B8C299A2BCC
:100BF0002483D583468357836087B1878287938711
:100C000088E08487CF01DF91CF911F910F91FF90F2
:100C1000EF90DF90CF90BF90AF909F908F907F909C
:100C20006F905F9008953F924F925F926F927F9284
:100C30008F929F92AF92BF92CF92DF92EF92FF92EC
:100C40000F931F93CF93DF93CDB7DEB7FC01142F23
:100C5000F22ED02E2A2D382CDB0118968C9190E0A4
:100C6000A0E0B0E03BE0880F991FAA1FBB1F3A9598
:100C7000D1F7A06CB2603C89A32B80839183A283BF
:100C8000B38330E040E050E060E070E080E090E06E
:100C900000E10E94640DA92DB0E02D012429352921
:100CA000912CA82DAA0FAA0B922A832E8328642E9A
:100CB0006A2AA52EAA2A762E7A2AB72EBA2AB82F01
:100CC000BA2BA92B2C2D30E040E050E060E070E022
:100CD00080E090E008E10E94640D922A832A642A51
:100CE000A52A762AB72AB82BA92B2E2D30E040E072
:100CF00050E060E070E080E090E000E20E94640D6F
:100D0000922A832AC62CC42AA52AE72CE62AB72AC7
:100D1000B82BA92B2D2D30E040E050E060E070E0D2
:100D200080E090E008E20E94640D922A832AC42A9F
:100D3000DA2CD52AE62AB72AB82BA92B2F2D30E09A
:100D400040E050E060E070E080E090E000E30E946E
:100D5000640D922A832AC42AD52AE62AFB2CF72A74
:100D6000B82BA92B212F30E040E050E060E070E08C
:100D700080E090E008E30E94640D292938294C297D
:100D80005D296E297F298B2B9A2B248335834683FB
:100D90005783608771878287938788E08487CF0134
:100DA000DF91CF911F910F91FF90EF90DF90CF9047
:100DB000BF90AF909F908F907F906F905F904F907B
:100DC0003F9008953F924F925F926F927F928F92E1
:100DD0009F92AF92BF92CF92DF92EF92FF920F93CA
:100DE0001F93CF93DF93CDB7DEB7DC01F42E102F26
:100DF000FB014084512C612C712C8BE0440C551C60
:100E0000661C771C8A95D1F7F0EC6F2A689471F80C
:100E10008C89682A4D925D926D927C92139730E096
:100E200040E050E060E070E080E090E000E30E948D
:100E3000640D722E632E442E352E962EB72EF82F6B
:100E4000E92F2F2D30E040E050E060E070E080E0DE
:100E500090E008E30E94640D722A632A442A532C0E
:100E6000552AF92CF62ADB2CD72AF82BE92B212F2F
:100E700030E040E050E060E070E080E090E008E2C8
:100E80000E94640D722A632A442A552AF62A1D2DCF
:100E9000172BF82BE92B2E2D30E040E050E060E0DE
:100EA00070E080E090E000E20E94640D722A632A04
:100EB000442A552AF62A172BF82BE92B2C2D30E043
:100EC00040E050E060E070E080E090E008E10E94E7
:100ED000640D722A632AC42CC42AE52CE52AF62A5A
:100EE000172BF82BE92B2A2D30E040E050E060E092
:100EF00070E080E090E000E10E94640D722AA62C70
:100F0000A32AC42AE52AF62A172BF82BE92B282D29
:100F100030E040E050E060E070E080E090E008E029
:100F20000E94640D27293A294C295E296F29712BCB
:100F30008F2B9E2B14962C93149715963C931597F4
:100F400016964C93169717965C93179718966C9372
:100F5000189719967C9319971A968C931A971B9643
:100F60009C931B9787E01C968C931C97CD01DF9177
:100F7000CF911F910F91FF90EF90DF90CF90BF9096
:100F8000AF909F908F907F906F905F904F903F9029
:100F900008956F927F929F92AF92BF92CF92DF920D
:100FA000EF92FF920F931F93CF93DF93FC01148274
:100FB0001582168217821086118612861386DB012F
:100FC00018968C9190E0A0E0B0E03BE0880F991F6C
:100FD000AA1FBB1F3A95D1F7A06CB260A22B8083E9
:100FE0009183A283B383912CC12CD12CE12CF12CC1
:100FF00010E0D0E0C0E05A01B8E0AB0EB11C612CAB
:10100000712CD5012E915D0130E040E050E060E0B0
:1010100070E080E090E0062D0E94640D922AC32AC1
:10102000D42AE52AF62A172BD82BC92BB8E06B0E49
:10103000711C80E46816710421F79482C582D682FF
:10104000E782F0861187D287C38788E08487CF0143
:10105000DF91CF911F910F91FF90EF90DF90CF9094
:10106000BF90AF909F907F906F9008950F931F93C4
:10107000FC01DB0118968C9190E0A0E0B0E03BE031
:10108000880F991FAA1FBB1F3A95D1F7A06CB260B9
:10109000A22B80839183A283B383DA0111960C91F2
:1010A000119710E0102F00278C91082B04831583D3
:1010B00016821782108611861286138682E0848734
:1010C000CF011F910F910895FC01148215821682A1
:1010D000178210861186128613861486DB011796F6
:1010E0008C9190E0A0E0B0E0A06480839183A28323
:1010F000B383CF010895CF93DF93CDB7DEB72A979F
:101100000FB6F894DEBF0FBECDBF582F462F70E04C
:1011100090E04A8759870E94B80D292F90916D035E
:1011200031E0390F30936D03682F722F20E030E0EB
:101130004A85598580E02A960FB6F894DEBF0FBE27
:10114000CDBFDF91CF9108951F93CF93DF93EC0133
:10115000FB01F8942881422F50E0CA0101964B818F
:10116000642F70E00E94500D99819817B9F0182FE4
:10117000BF019E819F5F9E834A81429F90011124FF
:10118000220F331F220F331F8C819D8150E0820F6D
:10119000931F0E94010F188381E001C080E07894C2
:1011A000DF91CF911F910895CF93DF93EC01F894D5
:1011B000298188819E81821302C09923F9F0FB0165
:1011C00091509E839A81492F50E0929FB001112443
:1011D0009B01220F331F220F331F6C817D81620F11
:1011E000731FCF010E94010F898190E001966B81EE
:1011F00070E00E94500D898381E001C080E0789406
:10120000DF91CF910895FC0183819681891B089518
:10121000FC0186818823B1F0DB0192816181492F35
:1012200050E0969FB00111249B01220F331F220F23
:10123000331F64817581620F731FCD010E94010FFE
:1012400081E0089580E00895CF93DF93CDB7DEB7B6
:1012500027970FB6F894DEBF0FBECDBF80E090E0B9
:1012600047E09C0120593C4FFE013196D901542F93
:1012700001900D925A95E1F7F90111820796863493
:10128000910579F70E94070A789427960FB6F8948B
:10129000DEBF0FBECDBFDF91CF9108958A30A8F495
:1012A00090916F0327E0929FF0011124E059FC4FC9
:1012B00021E0218380837383628321E030E03583E2
:1012C000248316829F5F90936F030895E0916E03CD
:1012D00097E0E99FF0011124E059FC4F86830895BF
:1012E000E0916E0327E0E29FF0011124E059FC4FEA
:1012F0009583848382E081830895C7E0D1E0809163
:10130000B6038823E1F38091B60381508093B6033E
:1013100010926E0380916E0390916F03891778F796
:1013200090E0C89FF001C99FF00D1124E059FC4FD7
:101330004181413039F02481358121153105A1F4F5
:10134000423091F4C89FD001C99FB00D1124A0591B
:10135000BC4F1196DC9311971296ED91FC91139767
:1013600016968C9109950BC0C89FF001C99FF00D8E
:101370001124E059FC4F2150310935832483809199
:101380006E038F5F80936E03C5CFFC018FEF808764
:101390008EED83838DEA84838EEB85838FEE868347
:1013A000089580E00895FC01842F8F738783407C2B
:1013B00057706627772796E07695679557954795F6
:1013C0009A95D1F740871182128208950F931F9347
:1013D000FB0140815181628173818A019B01A6E0FA
:1013E0003695279517950795AA95D1F70F713681F0
:1013F000FC012381321719F02085201304C00E94BC
:10140000D30981E001C080E01F910F91089582E02F
:1014100080936E008BE084BD8DE787BD08951F9299
:101420000F920FB60F9211248F938091B6038F5FA6
:101430008093B6038F910F900FBE0F901F90189559
:10144000CF93DF931F92CDB7DEB78091C00087FFA7
:101450000AC08091C6008983BE016F5F7F4F85E619
:1014600093E00E94A4080F90DF91CF910895CF934D
:10147000DF931F92CDB7DEB7BE016F5F7F4F8DE563
:1014800093E00E94D408882339F08091C00085FF42
:10149000FCCF89818093C6000F90DF91CF91089592
:1014A000CF93DF931F92CDB7DEB78091C80087FF3F
:1014B0000BC08091CE008983BE016F5F7F4F85E5B1
:1014C00093E00E94A408F1CF0F90DF91CF9108958F
:1014D000CF93DF931F92CDB7DEB7BE016F5F7F4F13
:1014E0008DE493E00E94D408882339F08091C800ED
:1014F00085FFFCCF89818093CE000F90DF91CF9143
:1015000008958130910571F00297B9F488E18093D4
:10151000C9001092CD0088E08093CC0086E08093D3
:10152000CA000BC088E18093C1001092C50088E01A
:101530008093C40086E08093C2008091C9008068D7
:101540008093C9008091C10080688093C100089594
:101550001F920F920FB60F9211240BB60F922F937A
:101560003F934F935F936F937F938F939F93AF932B
:10157000BF93EF93FF93CF93DF931F92CDB7DEB767
:101580008091C6008983BE016F5F7F4F85E693E03F
:101590000E94A4080F90DF91CF91FF91EF91BF912E
:1015A000AF919F918F917F916F915F914F913F91FB
:1015B0002F910F900BBE0F900FBE0F901F9018959C
:1015C0001F920F920FB60F9211240BB60F922F930A
:1015D0003F934F935F936F937F938F939F93AF93BB
:1015E000BF93EF93FF93CF93DF931F92CDB7DEB7F7
:1015F0008091CE008983BE016F5F7F4F85E593E0C8
:101600000E94A4080F90DF91CF91FF91EF91BF91BD
:10161000AF919F918F917F916F915F914F913F918A
:101620002F910F900BBE0F900FBE0F901F9018952B
:10163000EF92FF920F931F93CF93DF93CDB7DEB757
:10164000A9970FB6F894DEBF0FBECDBF10E000EC37
:101650003BEDF32EEE24E394BE01675D7F4F85E5FD
:1016600093E00E94D408882309F444C08091E503E4
:1016700029A581111DC0203C29F02B3D59F4E09291
:10168000E503EACF8091B7039091B80397FDE4CFCB
:1016900011E0E2CF8091B7039091B8030196909347
:1016A000B8038093B703FC01E754FC4F2083D4CFE9
:1016B0002C3D81F02D3DD9F48091B7039091B80372
:1016C00001969093B8038093B703FC01E754FC4F55
:1016D000F0820DC08091B7039091B803019690936A
:1016E000B8038093B703FC01E754FC4F00831092CA
:1016F000E503B2CF8091B7039091B8038C32910586
:1017000039F48FEF9FEF9093B8038093B70393C0A2
:10171000112309F490C0AC0141505109FA01E7547A
:10172000FC4F008110E0102F0027FC01E754FC4F14
:101730008081082B109234031092330369EB73E01D
:1017400080E090E00E94310C909334038093330347
:101750001092E5032FEF3FEF3093B8032093B703C8
:101760000817190709F04DC089E0E1E1F3E0DE0157
:10177000909601900D928A95E1F78E01005E1F4FC1
:101780007E0188E2E80EF11CB8018DE593E00E942D
:10179000A4080F5F1F4F0E151F05B1F71F8E1E8E79
:1017A0001D8EA9EBB3E0FE013196BF018D918193AF
:1017B00083E0A13CB807D1F7A1ECB3E0FE01399674
:1017C000CE0141962D912193E817F907D9F7A9EC9D
:1017D000B3E0CE0149962D912193E817F907D9F787
:1017E0008091D103898F8091D2038C8F8091D30314
:1017F0008A8F8091D4038B8F85E393E00E94A408A5
:101800001AC089E0EAE1F3E0DE01119601900D9241
:101810008A95E1F78E010F5F1F4F7E0189E0E80E88
:10182000F11CB8018DE593E00E94A4080F5F1F4FE3
:101830000E151F05B1F7A9960FB6F894DEBF0FBEBF
:10184000CDBFDF91CF911F910F91FF90EF90089541
:101850001092E5038FEF9FEF9093B8038093B70347
:101860000895460F571F6417750789F0FB012191F2
:10187000BF01FC01E227FF27EE0FFF1FEA5FFE4FCB
:1018800020813181892F992782279327ECCF0895D2
:1018900084E293E00C94CD04EF92FF920F931F9398
:1018A000CF93DF93CDB7DEB72B970FB6F894DEBF9B
:1018B0000FBECDBF80E88093610081E0809361001E
:1018C00061E084E60E947B08209365033093660301
:1018D00040936703509368036093690370936A03AE
:1018E00080936B0390936C0361E084E60E947B0815
:1018F00020935D0330935E0340935F035093600336
:101900006093610370936203809363039093640315
:1019100061E084E60E947B082093550330935603D0
:1019200040935703509358036093590370935A039D
:1019300080935B0390935C0361E084E60E947B08E4
:1019400020934D0330934E0340934F035093500325
:101950006093510370935203809353039093540305
:101960006DE08FE00E947B0820934503309346038F
:1019700040934703509348036093490370934A038D
:1019800080934B0390934C036DE08FE00E947B08A3
:1019900020933D0330933E0340933F035093400315
:1019A00060934103709342038093430390934403F5
:1019B0006FE185E00E947B08209335033093360366
:1019C00040933703509338036093390370933A037D
:1019D00080933B0390933C030E94C2040E94320414
:1019E0000E94280C81E090E00E94810A82E090E051
:1019F0000E94810A78940E94240969EC74E080E0D6
:101A00000E944E0967E37AE081E00E944E0968E691
:101A10007AE083E00E944E0964E172E085E00E9472
:101A20004E0962EE72E086E00E944E0964E771E0C2
:101A300087E00E944E0968E17BE088E00E944E0941
:101A400065EA70E089E00E944E098BE0E6E0F3E091
:101A5000DE01119601900D928A95E1F78E010F5FDC
:101A60001F4F7E018BE0E80EF11CB8018DE593E07D
:101A70000E94A4080F5F1F4F0E151F05B1F70E94AB
:101A80007D0980E090E02B960FB6F894DEBF0FBE84
:101A9000CDBFDF91CF911F910F91FF90EF900895EF
:101AA00097FB072E16F4009407D077FD09D00E940B
:101AB0009B0D07FC05D03EF4909581959F4F0895AE
:101AC000709561957F4F08950F93083090F0982F8F
:101AD000872F762F652F542F432F322F2227085020
:101AE000F4CF220F331F441F551F661F771F881F17
:101AF000991F0A95B2F70F91089597FB10F8169465
:101B000000080F93083098F00850232F342F452FEA
:101B1000562F672F782F892F902DF4CF0594979506
:101B200087957795679557954795379527950A95A2
:101B3000AAF70F910895AA1BBB1B51E107C0AA1F6A
:101B4000BB1FA617B70710F0A61BB70B881F991F5E
:101B50005A95A9F780959095BC01CD010895EE0F97
:101B6000FF1F0024001C0BBE0790F691E02D099486
:101B70000F931F93CF93DF93869F8001879F100D54
:101B8000969F100D1124C8010E94D40DEC010097FE
:101B900029F0A80160E070E00E940A0FCE01DF91F9
:101BA000CF911F910F910895CF93DF9382309105CC
:101BB00010F482E090E0E091E803F091E90320E086
:101BC00030E0C0E0D0E0309711F1408151814817FA
:101BD0005907C0F04817590761F482819381209713
:101BE00019F09B838A832BC09093E9038093E803C9
:101BF00026C02115310519F04217530718F49A0130
:101C0000BE01DF01EF010280F381E02DDCCF211561
:101C1000310509F1281B390B2430310590F4129657
:101C20008D919C9113976115710521F0FB019383B0
:101C3000828304C09093E9038093E803FD01329608
:101C400044C0FD01E20FF31F8193919322503109AB
:101C50002D933C933AC02091E6033091E703232B68
:101C600041F420910201309103013093E703209366
:101C7000E60320910001309101012115310541F465
:101C80002DB73EB74091040150910501241B350B3F
:101C9000E091E603F091E703E217F307A0F42E1BAF
:101CA0003F0B2817390778F0AC014E5F5F4F2417C0
:101CB000350748F04E0F5F1F5093E7034093E6034C
:101CC0008193919302C0E0E0F0E0CF01DF91CF91EA
:101CD00008950F931F93CF93DF93009709F48CC05F
:101CE000FC013297138212820091E8031091E903FC
:101CF0000115110581F420813181820F931F2091FC
:101D0000E6033091E7032817390779F5F093E703E5
:101D1000E093E60371C0D80140E050E0AE17BF0782
:101D200050F412962D913C911397AD012115310578
:101D300009F1D901F3CF9D01DA0133832283608158
:101D40007181860F971F8217930769F4EC01288130
:101D50003981260F371F2E5F3F4F318320838A81C1
:101D60009B8193838283452B29F4F093E903E093CD
:101D7000E80342C01396FC93EE931297ED0149914C
:101D800059919E01240F351FE217F30771F48081EA
:101D90009181840F951F029611969C938E93828158
:101DA000938113969C938E931297E0E0F0E0D80114
:101DB00012968D919C911397009719F0F8018C0160
:101DC000F6CF8D919C9198012E5F3F4F820F931F0C
:101DD0002091E6033091E7032817390769F430971B
:101DE00029F41092E9031092E80302C013821282D0
:101DF0001093E7030093E603DF91CF911F910F91BA
:101E00000895FB01DC0102C001900D924150504049
:101E1000D8F70895DC0101C06D9341505040E0F7C0
:061E20000895F894FFCFC5
:101E26000000EA0320000000C1C081C1400101C3D7
:101E3600C003800241C201C6C006800741C7000533
:101E4600C1C581C4400401CCC00C800D41CD000F3A
:101E5600C1CF81CE400E000AC1CA81CB400B01C959
:101E6600C009800841C801D8C018801941D9001B93
:101E7600C1DB81DA401A001EC1DE81DF401F01DDB1
:101E8600C01D801C41DC0014C1D481D5401501D78A
:101E9600C017801641D601D2C012801341D300115B
:101EA600C1D181D0401001F0C030803141F1003302
:101EB600C1F381F240320036C1F681F7403701F5B1
:101EC600C035803441F4003CC1FC81FD403D01FF3A
:101ED600C03F803E41FE01FAC03A803B41FB0039DB
:101EE600C1F981F840380028C1E881E9402901EBB1
:101EF600C02B802A41EA01EEC02E802F41EF002D33
:101F0600C1ED81EC402C01E4C024802541E5002789
:101F1600C1E781E640260022C1E281E3402301E1D8
:101F2600C021802041E001A0C060806141A1006322
:101F3600C1A381A240620066C1A681A7406701A530
:101F4600C065806441A4006CC1AC81AD406D01AF39
:101F5600C06F806E41AE01AAC06A806B41AB00695A
:101F6600C1A981A840680078C1B881B9407901BB90
:101F7600C07B807A41BA01BEC07E807F41BF007DB2
:101F8600C1BD81BC407C01B4C074807541B5007789
:101F9600C1B781B640760072C1B281B3407301B158
:101FA600C071807041B00050C19081914051019341
:101FB600C053805241920196C056805741970055B2
:101FC600C19581944054019CC05C805D419D005F39
:101FD600C19F819E405E005AC19A819B405B0199D8
:101FE600C059805841980188C04880494189004BB2
:101FF600C18B818A404A004EC18E818F404F018D30
:10200600C04D804C418C0044C18481854045018788
:10201600C047804641860182C042804341830041D9
:10202600C18181804040426F6F74656476320D0ACB
:1020360000435243204F4B0D0A00435243204E4F5C
:042046000D0A00007F
:00000001FF
