:100000000C944B000C9475000C9475000C947500C6
:100010000C9475000C9475000C9475000C9475008C
:100020000C9475000C9475000C9475000C9475007C
:100030000C9475000C9475000C9475000C9475006C
:100040000C94570A0C9475000C94E6030C947500FC
:100050000C9475000C94F00A0C9475000C947500C7
:100060000C9475000C9475000C9475000C9475003C
:100070000C9475000C9475000C9475000C9475002C
:100080000C94280B0C9475000C9475000C9475005E
:100090000C947500900C11241FBECFEFD0E1DEBF91
:1000A000CDBF13E0A0E0B1E0E6EBFEE100E00BBF66
:1000B00002C007900D92AC32B107D9F723E0ACE251
:1000C000B3E001C01D92AE3EB207E1F710E0CBE411
:1000D000D0E004C02197FE010E94F70DCA34D10779
:1000E000C9F70E94940C0C94590F0C940000CF9304
:1000F000DF93EC01188219821A821B821C821D82F6
:100100001E821F82188619861A861B861C86FB0192
:1001100080819181A281B38188279927AF73BB2702
:10012000CD01AA27BB278C309105A105B10521F08F
:100130000D97A105B10529F46CE273E0CE010E9490
:100140007108CE01DF91CF9108958F929F92AF9267
:10015000CF92EF920F931F93CF93DF93CDB7DEB77C
:10016000C254D1090FB6F894DEBF0FBECDBF198EB1
:100170001A8E1B8E1C8E1F8E1E8E1D8EBE016F5FF3
:100180007F4F8DE393E00E94E108882309F4B9C012
:1001900018A219A21AA21BA21CA21DA21EA21FA273
:1001A00018A619A61AA61BA61CA689E0E6E0F3E08D
:1001B000DE019D9601900D928A95E1F78E01035D17
:1001C0001F4F4E0185E3880E911CB80185E693E030
:1001D0000E94B1080F5F1F4F08151905B1F721E004
:1001E000AE014F5F5F4F6CE273E0CE01C6960E9496
:1001F000D6078DE0FE01F696DE01909601900D92F5
:100200008A95E1F7BE01605E7F4F85E493E00E942E
:10021000B10822E0AE01475F5F4F6CE273E0CE01B0
:10022000C6960E94D6078DE0FE01F696DE019096F6
:1002300001900D928A95E1F7BE01605E7F4F85E4E3
:1002400093E00E94B10883E08F93812CAB8CCA8C21
:10025000EC8C098D20E040E06CE273E0CE01C696A4
:100260000E94EF068DE0FE01F696DE019096019069
:100270000D928A95E1F7BE01605E7F4F85E493E0C1
:100280000E94B1088E8C9F8C84E08F9389E1A82E08
:1002900094E1C92E2EE1E22E0EE121E04AE06CE26B
:1002A00073E0CE01C6960E9420068DE0FE01F69610
:1002B000DE01909601900D928A95E1F7BE01605E95
:1002C0007F4F85E493E00E94B10826E0AE014F5EC7
:1002D0005F4F6CE273E0CE01C6960E94D6078DE0B8
:1002E000FE01F696DE01909601900D928A95E1F757
:1002F000BE01605E7F4F85E493E00E94B1080F90DD
:100300000F90CE5BDF4F0FB6F894DEBF0FBECDBFB0
:10031000DF91CF911F910F91EF90CF90AF909F9071
:100320008F900895CF93DF93CDB7DEB7A7970FB621
:10033000F894DEBF0FBECDBF1E861F86188A198AAD
:100340001A8A1B8A1C8A1D8A1E8A1F8A188E198E79
:100350001A8E19821A821B821C821D821E821F82A3
:10036000188619861A861B861C861D86BE01625F4A
:100370007F4F8DE493E00E94E108882309F44AC08E
:100380008E859F85A889B98988279927A07CB37015
:10039000009720ECA207B105E9F00097A10522E043
:1003A000B20769F0892B8A2B8B2BA1F529E043E05A
:1003B0006CE273E0CE014B960E94DC041BC0BE01D0
:1003C000625F7F4F8CE293E00E94F309882311F172
:1003D0002E9A20C0BE01625F7F4F8CE293E00E94A4
:1003E000F3098823B9F0BE01625F7F4FCE014B96BF
:1003F0000E9477008DE0FE017B96DE011196019050
:100400000D928A95E1F7BE016F5F7F4F85E493E01F
:100410000E94B108A7960FB6F894DEBF0FBECDBFFD
:10042000DF91CF9108954F925F926F927F928F925A
:100430009F92AF92BF92FF920F931F93CF93DF9340
:10044000CDB7DEB72D970FB6F894DEBF0FBECDBF88
:10045000F090ED001092ED008091EE0085FF94C0C9
:100460001092EE0019821A821B821C821D821E824B
:100470001F82188619861A861B861C861D86809107
:10048000EF008F708D879091F0004091F100809087
:10049000F2000091F30050E060E070E02A013B01BF
:1004A00025E0440C551C661C771C2A95D1F7492F72
:1004B00050E060E070E033E076956795579547959A
:1004C0003A95D1F74429552966297729912CA12CF1
:1004D000B12CEDE0880C991CAA1CBB1CEA95D1F745
:1004E000482959296A297B2910E020E030E0F5E10C
:1004F000000F111F221F331FFA95D1F7402B512BEC
:10050000622B732B49835A836B837C83E82FF0E043
:100510005F01A3E0AA0CBB1CAA95E1F7A0E0B0E044
:1005200031971897EF3F8FEFF80739F12091FA00D4
:1005300030E040E050E060E070E080E090E0850175
:100540000A0F1B1F0E94AC0D1D81212B1E81312B18
:100550001F81412B1885512B1985612B1A85712B11
:100560001B85812B1C85912B2D833E834F835887C0
:1005700069877A878B879C87D3CFBE016F5F7F4F58
:100580008DE493E00E94B10888E98093EF008091A8
:10059000ED008F29807F8093ED002D960FB6F894A3
:1005A000DEBF0FBECDBFDF91CF911F910F91FF90A6
:1005B000BF90AF909F908F907F906F905F904F9083
:1005C00008950F93CF93DF93CDB7DEB72D970FB676
:1005D000F894DEBF0FBECDBF19821A821B821C8227
:1005E0001D821E821F82188619861A861B861C860B
:1005F0001D86BE016F5F7F4F85E493E00E94E10896
:10060000882309F49FC080E18093ED0089819A815D
:10061000AB81BC8188279927A07EBF7125E1B69563
:10062000A795979587952A95D1F78093F3008981AF
:100630009A81AB81BC818827907EAF71BB273DE05A
:10064000B695A795979587953A95D1F78093F2003F
:1006500089819A81AB81BC81807E9F71AA27BB274B
:1006600045E0B695A795979587954A95D1F78093DC
:10067000F1008981880F880F880F8093F0002D8109
:100680003E814F81588569857A858B859C8508E3F5
:100690000E94C70D2093FA0020E030E040E050E0D7
:1006A00060E070E08B8590E000E30E94C70D20932E
:1006B000FA007A8520E030E040E050E060E080E041
:1006C00090E008E20E94C70D2093FA00698520E0BF
:1006D00030E040E050E070E080E090E000E20E9416
:1006E000C70D2093FA00588520E030E040E060E03C
:1006F00070E080E090E008E10E94C70D2093FA00CE
:100700004F8120E030E050E060E070E080E090E079
:1007100000E10E94C70D2093FA003E8120E040E0F6
:1007200050E060E070E080E090E008E00E94C70DDB
:100730002093FA008D818093FA001092EE0088E5F4
:100740008093EF002D960FB6F894DEBF0FBECDBF9D
:10075000DF91CF910F91089520E12093ED00FC01EE
:10076000408151816281738183E0769567955795C9
:1007700047958A95D1F74093F30080819181A281BA
:10078000B38125E0880F991FAA1FBB1F2A95D1F7B7
:100790008093F2001092F1001092F000EAEFF0E086
:1007A00081E0808382E0808383E0808384E08083B3
:1007B00085E0808386E0808387E0808388E0808393
:1007C0001092EE0088E58093EF0008951F920F923B
:1007D0000FB60F9211248F939F938091ED00807F2D
:1007E000809339031092ED008091EE0085FF25C0C3
:1007F0008091FA0080933A038091FA0080933A0343
:100800008091FA0080933A038091FA0080933A0332
:100810008091FA0080933A038091FA0080933A0322
:100820008091FA0080933A038091FA0080933A0312
:1008300080FF02C0A39801C0A39A1092EE0088E83E
:100840008093EF008091ED00807F90913903892B98
:100850008093ED009F918F910F900FBE0F901F908E
:10086000189581E08093D8008091D90082FDFCCF5B
:100870001092E20084E08093E30082E18093E40040
:100880001092ED0088E98093EF001092EE00109234
:10089000F3001092F2001092F1001092F00010920A
:1008A000F7001092F6001092F5001092F40080E12B
:1008B0008093ED001092EF001092EE001092F30082
:1008C0001092F2001092F1001092F0001092F700D6
:1008D0001092F6001092F5001092F40082E0982F2A
:1008E0009295907F9093ED001092EF001092EE00A1
:1008F0001092F3001092F2001092F1001092F000AA
:100900001092F7001092F6001092F5001092F40089
:1009100028E030E01092FA0021503109D9F78F5FBA
:100920008F30E9F61092DF008091D80082608093CA
:10093000D80090EA8091D90082FD03C09093DB003B
:10094000F9CF08950C9A0B9A6C9A149A13980895FB
:10095000749A089574980895CF93DF93EC010E94E0
:10096000A204C130D10531F0229741F4DF91CF913B
:100970000C94AA04DF91CF910C94A804DF91CF913D
:1009800008959B9AA39A269A2E9A249A2C9A0895AF
:10099000882341F0813051F4A39A80E00E947309CA
:1009A000139A04C0A39881E00E94730988EE93E033
:1009B0000C947D090C94D2093F924F925F926F92F2
:1009C0007F928F929F92AF92BF92CF92DF92EF92DF
:1009D000FF920F931F93CF93DF93FC01EB01C42E83
:1009E000922E80E090E0A0ECB1E080839183A2831E
:1009F000B3832D8130E040E050E060E070E080E0C3
:100A000090E000E30E94AC0D322E432E542E652E52
:100A1000762E872EB82FA92F2E8130E040E050E0AF
:100A200060E070E080E090E008E30E94AC0DD32C21
:100A3000D22AE42CE32AF52CF42A162D152BA72C08
:100A4000A62AB82CB72AB82BA92B2C8130E040E07D
:100A500050E060E070E080E090E008E20E94AC0DC1
:100A6000D22AE32AF42A152BA62AB72AB82BA92BB7
:100A70002B8130E040E050E060E070E080E090E00A
:100A800000E20E94AC0DD22AE32AF42A152BDA2DBB
:100A9000D62BCB2DC72BB82BA92B292D30E040E02E
:100AA00050E060E070E080E090E000E10E94AC0D7A
:100AB000D22AE32AF42A152BD62BC72BB82BA92B25
:100AC0002C2D30E040E050E060E070E080E090E00D
:100AD00008E10E94AC0D2D293E294F29512B6D2B89
:100AE0007C2B8B2B9A2B24833583468357836087FB
:100AF00071878287938786E08487CF01DF91CF91CA
:100B00001F910F91FF90EF90DF90CF90BF90AF902B
:100B10009F908F907F906F905F904F903F9008953F
:100B20005F926F927F928F929F92AF92BF92CF927D
:100B3000DF92EF92FF920F931F93CF93DF93FC010D
:100B4000B42ED52FD22EC32F312FDB0118968C91C6
:100B500090E0A0E0B0E02BE0880F991FAA1FBB1F18
:100B60002A95D1F7A06CB260AC2980839183A283CF
:100B7000B383202F912F990F990B492F592F692F4C
:100B8000792F892F00E20E94AC0D122F532E3A01CB
:100B90004B01C82EA92F2E2D9F2D990F990B3F2D5C
:100BA000492F592F692F792F892F00E30E94AC0D0F
:100BB000122B3529A62CA42AE72CE52AF82CF62A94
:100BC000B92DB72BC82A9A2BAD2FAA0FAA0B1B2918
:100BD000D32BBA2CBA2AEA2AFA2ABA2BCA2AA92B68
:100BE0002D2D9C2F990F990B3C2F492F592F692F91
:100BF000792F892F00E10E94AC0D212BD32B4B299B
:100C00005E296F29B72B8C299A2B2483D5834683A1
:100C100057836087B1878287938788E08487CF0175
:100C2000DF91CF911F910F91FF90EF90DF90CF90C8
:100C3000BF90AF909F908F907F906F905F9008953E
:100C40003F924F925F926F927F928F929F92AF925C
:100C5000BF92CF92DF92EF92FF920F931F93CF93A9
:100C6000DF93CDB7DEB7FC01142FF22ED02E2A2D44
:100C7000382CDB0118968C9190E0A0E0B0E03BE0CE
:100C8000880F991FAA1FBB1F3A95D1F7A06CB260BD
:100C90003C89A32B80839183A283B38330E040E01F
:100CA00050E060E070E080E090E000E10E94AC0D78
:100CB000A92DB0E02D0124293529912CA82DAA0FAA
:100CC000AA0B922A832E8328642E6A2AA52EAA2A8A
:100CD000762E7A2AB72EBA2AB82FBA2BA92B2C2D0A
:100CE00030E040E050E060E070E080E090E008E15B
:100CF0000E94AC0D922A832A642AA52A762AB72A52
:100D0000B82BA92B2E2D30E040E050E060E070E0E1
:100D100080E090E000E20E94AC0D922A832AC62C6B
:100D2000C42AA52AE72CE62AB72AB82BA92B2D2DF1
:100D300030E040E050E060E070E080E090E008E209
:100D40000E94AC0D922A832AC42ADA2CD52AE62ADC
:100D5000B72AB82BA92B2F2D30E040E050E060E0FF
:100D600070E080E090E000E30E94AC0D922A832ABC
:100D7000C42AD52AE62AFB2CF72AB82BA92B212F27
:100D800030E040E050E060E070E080E090E008E3B8
:100D90000E94AC0D292938294C295D296E297F290B
:100DA0008B2B9A2B248335834683578360877187E7
:100DB0008287938788E08487CF01DF91CF911F914D
:100DC0000F91FF90EF90DF90CF90BF90AF909F90EA
:100DD0008F907F906F905F904F903F9008953F92DB
:100DE0004F925F926F927F928F929F92AF92BF923B
:100DF000CF92DF92EF92FF920F931F93CF93DF93E7
:100E0000CDB7DEB7DC01F42E102FFB014084512C4E
:100E1000612C712C8BE0440C551C661C771C8A9548
:100E2000D1F7F0EC6F2A689471F88C89682A4D929A
:100E30005D926D927C92139730E040E050E060E06C
:100E400070E080E090E000E30E94AC0D722E632E13
:100E5000442E352E962EB72EF82FE92F2F2D30E069
:100E600040E050E060E070E080E090E008E30E9445
:100E7000AC0D722A632A442A532C552AF92CF62ADF
:100E8000DB2CD72AF82BE92B212F30E040E050E073
:100E900060E070E080E090E008E20E94AC0D722A11
:100EA000632A442A552AF62A1D2D172BF82BE92BE5
:100EB0002E2D30E040E050E060E070E080E090E017
:100EC00000E20E94AC0D722A632A442A552AF62AAF
:100ED000172BF82BE92B2C2D30E040E050E060E0A0
:100EE00070E080E090E008E10E94AC0D722A632A75
:100EF000C42CC42AE52CE52AF62A172BF82BE92B5B
:100F00002A2D30E040E050E060E070E080E090E0CA
:100F100000E10E94AC0D722AA62CA32AC42AE52A5D
:100F2000F62A172BF82BE92B282D30E040E050E073
:100F300060E070E080E090E008E00E94AC0D2729BE
:100F40003A294C295E296F29712B8F2B9E2B1496E1
:100F50002C93149715963C93159716964C931697C9
:100F600017965C93179718966C93189719967C931D
:100F700019971A968C931A971B969C931B9787E048
:100F80001C968C931C97CD01DF91CF911F910F91EF
:100F9000FF90EF90DF90CF90BF90AF909F908F9099
:100FA0007F906F905F904F903F9008956F927F92E7
:100FB0009F92AF92BF92CF92DF92EF92FF920F93E8
:100FC0001F93CF93DF93FC01148215821682178240
:100FD0001086118612861386DB0118968C9190E09C
:100FE000A0E0B0E03BE0880F991FAA1FBB1F3A9515
:100FF000D1F7A06CB260A22B80839183A283B383CC
:10100000912CC12CD12CE12CF12C10E0D0E0C0E0CF
:101010005A01B8E0AB0EB11C612C712CD5012E9198
:101020005D0130E040E050E060E070E080E090E0A2
:10103000062D0E94AC0D922AC32AD42AE52AF62A4C
:10104000172BD82BC92BB8E06B0E711C80E46816E7
:10105000710421F79482C582D682E782F0861187D7
:10106000D287C38788E08487CF01DF91CF911F911A
:101070000F91FF90EF90DF90CF90BF90AF909F9037
:101080007F906F9008950F931F93FC01DB011896DA
:101090008C9190E0A0E0B0E03BE0880F991FAA1F80
:1010A000BB1F3A95D1F7A06CB260A22B80839183CD
:1010B000A283B383DA0111960C91119710E0102FDF
:1010C00000278C91082B04831583168217821086C3
:1010D00011861286138682E08487CF011F910F91BB
:1010E0000895FC01148215821682178210861186DB
:1010F000128613861486DB0117968C9190E0A0E08F
:10110000B0E0A06480839183A283B383CF0108956C
:10111000CF93DF93CDB7DEB72A970FB6F894DEBF33
:101120000FBECDBF582F462F70E090E04A875987F9
:101130000E94000E292F9091750331E0390F3093F2
:101140007503682F722F20E030E04A85598580E0D2
:101150002A960FB6F894DEBF0FBECDBFDF91CF91B8
:1011600008951F93CF93DF93EC01FB01F89428813E
:10117000422F50E0CA0101964B81642F70E00E941B
:10118000980D99819817B9F0182FBF019E819F5F24
:101190009E834A81429F90011124220F331F220F08
:1011A000331F8C819D8150E0820F931F0E94490F55
:1011B000188381E001C080E07894DF91CF911F9186
:1011C0000895CF93DF93EC01F894298188819E8163
:1011D000821302C09923F9F0FB0191509E839A81FA
:1011E000492F50E0929FB00111249B01220F331F21
:1011F000220F331F6C817D81620F731FCF010E940C
:10120000490F898190E001966B8170E00E94980DF2
:10121000898381E001C080E07894DF91CF910895C7
:10122000FC0183819681891B0895FC0186818823B6
:10123000B1F0DB0192816181492F50E0969FB001AE
:1012400011249B01220F331F220F331F64817581EC
:10125000620F731FCD010E94490F81E0089580E065
:101260000895CF93DF93CDB7DEB727970FB6F894E5
:10127000DEBF0FBECDBF80E090E047E09C01285864
:101280003C4FFE013196D901542F01900D925A9591
:10129000E1F7F901118207968634910579F70E94EA
:1012A0004F0A789427960FB6F894DEBF0FBECDBFD5
:1012B000DF91CF9108958A30A8F49091770327E0C9
:1012C000929FF0011124E858FC4F21E02183808394
:1012D0007383628321E030E03583248316829F5F2D
:1012E000909377030895E091760397E0E99FF001EA
:1012F0001124E858FC4F86830895E091760327E097
:10130000E29FF0011124E858FC4F9583848382E02A
:1013100081830895C7E0D1E08091BE038823E1F383
:101320008091BE0381508093BE031092760380911A
:10133000760390917703891778F790E0C89FF001C2
:10134000C99FF00D1124E858FC4F4181413039F01C
:101350002481358121153105A1F4423091F4C89FD3
:10136000D001C99FB00D1124A858BC4F1196DC9331
:1013700011971296ED91FC91139716968C91099501
:101380000BC0C89FF001C99FF00D1124E858FC4F15
:101390002150310935832483809176038F5F8093B8
:1013A0007603C5CFFC018FEF80878EED83838DEAB6
:1013B00084838EEB85838FEE8683089580E0089585
:1013C000FC01842F8F738783407C577066277727B3
:1013D00096E076956795579547959A95D1F740870A
:1013E000118212820895AF92BF92CF92DF92EF9254
:1013F000FF920F931F93CF93DF931F92CDB7DEB76A
:101400007C016B015B0184E0A80EB11C00E010E0E0
:10141000B501600F711F85E693E00E94B1080F5F70
:101420001F4F04301105A1F78DE08983BE016F5F66
:101430007F4F85E693E00E94B1088AE08983BE0170
:101440006F5F7F4F85E693E00E94B108F60140810F
:10145000518162817381DB01CA0126E0B695A795AF
:10146000979587952A95D1F78F712681F7019381FA
:10147000291719F09085981305C0C7010E94E0094B
:1014800081E001C080E00F90DF91CF911F910F911B
:10149000FF90EF90DF90CF90BF90AF90089582E0E3
:1014A00080936E008BE084BD8DE787BD08951F9209
:1014B0000F920FB60F9211248F938091BE038F5F0E
:1014C0008093BE038F910F900FBE0F901F901895C1
:1014D000CF93DF931F92CDB7DEB78091C00087FF17
:1014E0000AC08091C6008983BE016F5F7F4F8DE681
:1014F00093E00E94B1080F90DF91CF910895CF93B0
:10150000DF931F92CDB7DEB7BE016F5F7F4F85E6D9
:1015100093E00E94E108882339F08091C00085FFA4
:10152000FCCF89818093C6000F90DF91CF91089501
:10153000CF93DF931F92CDB7DEB78091C80087FFAE
:101540000BC08091CE008983BE016F5F7F4F8DE518
:1015500093E00E94B108F1CF0F90DF91CF910895F1
:10156000CF93DF931F92CDB7DEB7BE016F5F7F4F82
:1015700085E593E00E94E108882339F08091C80056
:1015800085FFFCCF89818093CE000F90DF91CF91B2
:1015900008958130910571F00297B9F488E1809344
:1015A000C9001092CD0088E08093CC0086E0809343
:1015B000CA000BC088E18093C1001092C50088E08A
:1015C0008093C40086E08093C2008091C900806847
:1015D0008093C9008091C10080688093C100089504
:1015E0001F920F920FB60F9211240BB60F922F93EA
:1015F0003F934F935F936F937F938F939F93AF939B
:10160000BF93EF93FF93CF93DF931F92CDB7DEB7D6
:101610008091C6008983BE016F5F7F4F8DE693E0A6
:101620000E94B1080F90DF91CF91FF91EF91BF9190
:10163000AF919F918F917F916F915F914F913F916A
:101640002F910F900BBE0F900FBE0F901F9018950B
:101650001F920F920FB60F9211240BB60F922F9379
:101660003F934F935F936F937F938F939F93AF932A
:10167000BF93EF93FF93CF93DF931F92CDB7DEB766
:101680008091CE008983BE016F5F7F4F8DE593E02F
:101690000E94B1080F90DF91CF91FF91EF91BF9120
:1016A000AF919F918F917F916F915F914F913F91FA
:1016B0002F910F900BBE0F900FBE0F901F9018959B
:1016C000EF92FF920F931F93CF93DF93CDB7DEB7C7
:1016D000A9970FB6F894DEBF0FBECDBF10E000ECA7
:1016E0003BEDF32EEE24E394BE01675D7F4F8DE565
:1016F00093E00E94E108882309F444C08091E90343
:1017000029A581111DC0203C29F02B3D59F4E09200
:10171000E903EACF8091BF039091C00397FDE4CF26
:1017200011E0E2CF8091BF039091C00301969093A6
:10173000C0038093BF03FC01EF53FC4F2083D4CF41
:101740002C3D81F02D3DD9F48091BF039091C003D1
:1017500001969093C0038093BF03FC01EF53FC4FAD
:10176000F0820DC08091BF039091C00301969093C9
:10177000C0038093BF03FC01EF53FC4F0083109222
:10178000E903B2CF8091BF039091C00388329105E5
:1017900039F48FEF9FEF9093C0038093BF0393C002
:1017A000112309F490C0AC0141505109FA01EF53E3
:1017B000FC4F008110E0102F0027FC01EF53FC4F7D
:1017C0008081082B10923C0310923B0361EC73E084
:1017D00080E090E00E94790C90933C0380933B035F
:1017E0001092E9032FEF3FEF3093C0032093BF0324
:1017F0000817190709F04DC089E0EAE1F3E0DE01BE
:10180000909601900D928A95E1F78E01005E1F4F30
:101810007E0188E2E80EF11CB80185E693E00E94A3
:10182000B1080F5F1F4F0E151F05B1F71F8E1E8EDB
:101830001D8EA1ECB3E0FE013196BF018D91819325
:1018400083E0A93CB807D1F7A9ECB3E0FE013996D3
:10185000CE0141962D912193E817F907D9F7A1ED13
:10186000B3E0CE0149962D912193E817F907D9F7F6
:101870008091D903898F8091DA038C8F8091DB036B
:101880008A8F8091DC038B8F8DE393E00E94B108F7
:101890001AC089E0E3E2F3E0DE01119601900D92B7
:1018A0008A95E1F78E010F5F1F4F7E0189E0E80EF8
:1018B000F11CB80185E693E00E94B1080F5F1F4F4D
:1018C0000E151F05B1F7A9960FB6F894DEBF0FBE2F
:1018D000CDBFDF91CF911F910F91FF90EF900895B1
:1018E0001092E9038FEF9FEF9093C0038093BF03A3
:1018F0000895460F571F6417750789F0FB01219162
:10190000BF01FC01E227FF27EE0FFF1FEA5FFE4F3A
:1019100020813181892F992782279327ECCF089541
:101920008CE293E00C94DA04EF92FF920F931F93F2
:10193000CF93DF93CDB7DEB72B970FB6F894DEBF0A
:101940000FBECDBF80E88093610081E0809361008D
:1019500061E084E60E94880820936D0330936E0353
:1019600040936F03509370036093710370937203FD
:10197000809373039093740361E084E60E94880867
:101980002093650330936603409367035093680385
:101990006093690370936A0380936B0390936C0365
:1019A00061E084E60E94880820935D0330935E0323
:1019B00040935F03509360036093610370936203ED
:1019C000809363039093640361E084E60E94880837
:1019D0002093550330935603409357035093580375
:1019E0006093590370935A0380935B0390935C0355
:1019F0006DE08FE00E94880820934D0330934E03E2
:101A000040934F03509350036093510370935203DC
:101A100080935303909354036DE08FE00E948808F5
:101A20002093450330934603409347035093480364
:101A30006093490370934A0380934B0390934C0344
:101A40006FE185E00E94880820933D0330933E03B8
:101A500040933F03509340036093410370934203CC
:101A600080934303909344030E94C1040E94310475
:101A70000E94700C81E090E00E94C90A82E090E030
:101A80000E94C90A78940E94310968EC74E080E0F1
:101A90000E945B096FE77AE081E00E945B0960EBDE
:101AA0007AE083E00E945B0963E172E085E00E94D6
:101AB0005B0961EE72E086E00E945B0962E971E019
:101AC00087E00E945B0960E67BE088E00E945B099A
:101AD00065EA70E089E00E945B098BE0EFE0F3E0EB
:101AE000DE01119601900D928A95E1F78E010F5F4C
:101AF0001F4F7E018BE0E80EF11CB80185E693E0F4
:101B00000E94B1080F5F1F4F0E151F05B1F70E940D
:101B10008A0980E090E02B960FB6F894DEBF0FBEE6
:101B2000CDBFDF91CF911F910F91FF90EF9008955E
:101B300097FB072E16F4009407D077FD09D00E947A
:101B4000E30D07FC05D03EF4909581959F4F0895D5
:101B5000709561957F4F08950F93083090F0982FFE
:101B6000872F762F652F542F432F322F222708508F
:101B7000F4CF220F331F441F551F661F771F881F86
:101B8000991F0A95B2F70F91089597FB10F81694D4
:101B900000080F93083098F00850232F342F452F5A
:101BA000562F672F782F892F902DF4CF0594979576
:101BB00087957795679557954795379527950A9512
:101BC000AAF70F910895AA1BBB1B51E107C0AA1FDA
:101BD000BB1FA617B70710F0A61BB70B881F991FCE
:101BE0005A95A9F780959095BC01CD010895EE0F07
:101BF000FF1F0024001C0BBE0790F691E02D0994F6
:101C00000F931F93CF93DF93869F8001879F100DC3
:101C1000969F100D1124C8010E941C0EEC01009724
:101C200029F0A80160E070E00E94520FCE01DF9120
:101C3000CF911F910F910895CF93DF93823091053B
:101C400010F482E090E0E091EC03F091ED0320E0ED
:101C500030E0C0E0D0E0309711F140815181481769
:101C60005907C0F04817590761F482819381209782
:101C700019F09B838A832BC09093ED038093EC0330
:101C800026C02115310519F04217530718F49A019F
:101C9000BE01DF01EF010280F381E02DDCCF2115D1
:101CA000310509F1281B390B2430310590F41296C7
:101CB0008D919C9113976115710521F0FB01938320
:101CC000828304C09093ED038093EC03FD01329670
:101CD00044C0FD01E20FF31F81939193225031091B
:101CE0002D933C933AC02091EA033091EB03232BD0
:101CF00041F420910201309103013093EB032093D2
:101D0000EA0320910001309101012115310541F4D0
:101D10002DB73EB74091040150910501241B350BAE
:101D2000E091EA03F091EB03E217F307A0F42E1B16
:101D30003F0B2817390778F0AC014E5F5F4F24172F
:101D4000350748F04E0F5F1F5093EB034093EA03B3
:101D50008193919302C0E0E0F0E0CF01DF91CF9159
:101D600008950F931F93CF93DF93009709F48CC0CE
:101D7000FC013297138212820091EC031091ED0363
:101D80000115110581F420813181820F931F20916B
:101D9000EA033091EB032817390779F5F093EB0349
:101DA000E093EA0371C0D80140E050E0AE17BF07EE
:101DB00050F412962D913C911397AD0121153105E8
:101DC00009F1D901F3CF9D01DA01338322836081C8
:101DD0007181860F971F8217930769F4EC012881A0
:101DE0003981260F371F2E5F3F4F318320838A8131
:101DF0009B8193838283452B29F4F093ED03E09339
:101E0000EC0342C01396FC93EE931297ED014991B7
:101E100059919E01240F351FE217F30771F4808159
:101E20009181840F951F029611969C938E938281C7
:101E3000938113969C938E931297E0E0F0E0D80183
:101E400012968D919C911397009719F0F8018C01CF
:101E5000F6CF8D919C9198012E5F3F4F820F931F7B
:101E60002091EA033091EB032817390769F4309782
:101E700029F41092ED031092EC0302C01382128237
:101E80001093EB030093EA03DF91CF911F910F9121
:101E90000895FB01DC0102C001900D9241505040B9
:101EA000D8F70895DC0101C06D9341505040E0F730
:061EB0000895F894FFCF35
:101EB6000000EE0320000000C1C081C1400101C343
:101EC600C003800241C201C6C006800741C70005A3
:101ED600C1C581C4400401CCC00C800D41CD000FAA
:101EE600C1CF81CE400E000AC1CA81CB400B01C9C9
:101EF600C009800841C801D8C018801941D9001B03
:101F0600C1DB81DA401A001EC1DE81DF401F01DD20
:101F1600C01D801C41DC0014C1D481D5401501D7F9
:101F2600C017801641D601D2C012801341D30011CA
:101F3600C1D181D0401001F0C030803141F1003371
:101F4600C1F381F240320036C1F681F7403701F520
:101F5600C035803441F4003CC1FC81FD403D01FFA9
:101F6600C03F803E41FE01FAC03A803B41FB00394A
:101F7600C1F981F840380028C1E881E9402901EB20
:101F8600C02B802A41EA01EEC02E802F41EF002DA2
:101F9600C1ED81EC402C01E4C024802541E50027F9
:101FA600C1E781E640260022C1E281E3402301E148
:101FB600C021802041E001A0C060806141A1006392
:101FC600C1A381A240620066C1A681A7406701A5A0
:101FD600C065806441A4006CC1AC81AD406D01AFA9
:101FE600C06F806E41AE01AAC06A806B41AB0069CA
:101FF600C1A981A840680078C1B881B9407901BB00
:10200600C07B807A41BA01BEC07E807F41BF007D21
:10201600C1BD81BC407C01B4C074807541B50077F8
:10202600C1B781B640760072C1B281B3407301B1C7
:10203600C071807041B00050C190819140510193B0
:10204600C053805241920196C05680574197005521
:10205600C19581944054019CC05C805D419D005FA8
:10206600C19F819E405E005AC19A819B405B019947
:10207600C059805841980188C04880494189004B21
:10208600C18B818A404A004EC18E818F404F018D9F
:10209600C04D804C418C0044C184818540450187F8
:1020A600C047804641860182C04280434183004149
:1020B600C18181804040504F53206F6B0D0A004212
:1020C6006F6F74656476320D0A00435243204F4B9E
:0C20D6000D0A00435243204E4F0D0A003B
:00000001FF
