:100000000C944B000C9475000C9475000C947500C6
:100010000C9475000C9475000C9475000C9475008C
:100020000C9475000C9475000C9475000C9475007C
:100030000C9475000C9475000C9475000C9475006C
:100040000C94390A0C9475000C94C8030C94750038
:100050000C9475000C9475000C9475000C9475004C
:100060000C9475000C9475000C9475000C9475003C
:100070000C9475000C9475000C9475000C9475002C
:100080000C9475000C9475000C9475000C9475001C
:100090000C947500060B11241FBECFEFD0E1DEBF1C
:1000A000CDBF11E0A0E0B1E0ECEBFBE100E00BBF65
:1000B00002C007900D92A231B107D9F721E0A2E169
:1000C000B1E001C01D92AE3CB207E1F710E0CBE415
:1000D000D0E004C02197FE010E947A0CCA34D107F7
:1000E000C9F70E940A0B0C94DC0D0C940000CF930E
:1000F000DF93EC01188219821A821B821C821D82F6
:100100001E821F82188619861A861B861C86FB0192
:1001100080819181A281B38188279927AF73BB2702
:10012000CD01AA27BB278C309105A105B10521F08F
:100130000D97A105B10529F462E171E0CE010E949D
:100140005308CE01DF91CF9108958F929F92AF9285
:10015000CF92EF920F93CF93DF93CDB7DEB7E997AE
:100160000FB6F894DEBF0FBECDBF198E1A8E1B8E50
:100170001C8E1F8E1E8E1D8EBE016F5F7F4F83E211
:1001800091E00E94C308882309F49FC018A219A215
:100190001AA21BA21CA21DA21EA21FA218A619A66B
:1001A0001AA61BA61CA621E0AE014F5F5F4F62E1BD
:1001B00071E0CE018D960E94B8078DE0FE01BD96DC
:1001C000DE01909601900D928A95E1F7BE01605E86
:1001D0007F4F8BE291E00E94930822E0AE01475FDF
:1001E0005F4F62E171E0CE018D960E94B8078DE00D
:1001F000FE01BD96DE01909601900D928A95E1F781
:10020000BE01605E7F4F8BE291E00E94930883E025
:100210008F93812CAB8CCA8CEC8C098D20E040E054
:1002200062E171E0CE018D960E94D1068DE0FE0163
:10023000BD96DE01909601900D928A95E1F7BE0180
:10024000605E7F4F8BE291E00E9493088E8C9F8CC2
:1002500084E08F9389E1A82E94E1C92E2EE1E22E4D
:100260000EE121E04AE062E171E0CE018D960E944C
:1002700002068DE0FE01BD96DE01909601900D9282
:100280008A95E1F7BE01605E7F4F8BE291E00E94AC
:10029000930826E0AE014F5E5F4F62E171E0CE0150
:1002A0008D960E94B8078DE0FE01BD96DE01909606
:1002B00001900D928A95E1F7BE01605E7F4F8BE25F
:1002C00091E00E9493080F900F90E9960FB6F89472
:1002D000DEBF0FBECDBFDF91CF910F91EF90CF90DA
:1002E000AF909F908F900895CF93DF93CDB7DEB7F7
:1002F000A7970FB6F894DEBF0FBECDBF1E861F8630
:10030000188A198A1A8A1B8A1C8A1D8A1E8A1F8AC1
:10031000188E198E1A8E19821A821B821C821D82D7
:100320001E821F82188619861A861B861C861D86C9
:10033000BE01625F7F4F83E391E00E94C308882380
:1003400009F44AC08E859F85A889B989882799278D
:10035000A07CB370009720ECA207B105E9F00097EC
:10036000A10522E0B20769F0892B8A2B8B2BA1F51E
:1003700029E043E062E171E0CE014B960E94BE04A9
:100380001BC0BE01625F7F4F82E191E00E94D509F0
:10039000882311F12E9A20C0BE01625F7F4F82E157
:1003A00091E00E94D5098823B9F0BE01625F7F4FBA
:1003B000CE014B960E9477008DE0FE017B96DE0118
:1003C000119601900D928A95E1F7BE016F5F7F4F04
:1003D0008BE291E00E949308A7960FB6F894DEBFD7
:1003E0000FBECDBFDF91CF9108954F925F926F9274
:1003F0007F928F929F92AF92BF92FF920F931F9323
:10040000CF93DF93CDB7DEB72D970FB6F894DEBF4D
:100410000FBECDBFF090ED001092ED008091EE0088
:1004200085FF94C01092EE0019821A821B821C82F2
:100430001D821E821F82188619861A861B861C86BC
:100440001D868091EF008F708D879091F000409114
:10045000F1008090F2000091F30050E060E070E065
:100460002A013B0125E0440C551C661C771C2A958B
:10047000D1F7492F50E060E070E033E07695679562
:10048000579547953A95D1F74429552966297729F3
:10049000912CA12CB12CEDE0880C991CAA1CBB1C42
:1004A000EA95D1F7482959296A297B2910E020E0EB
:1004B00030E0F5E1000F111F221F331FFA95D1F72D
:1004C000402B512B622B732B49835A836B837C8384
:1004D000E82FF0E05F01A3E0AA0CBB1CAA95E1F7AE
:1004E000A0E0B0E031971897EF3F8FEFF80739F1B0
:1004F0002091FA0030E040E050E060E070E080E001
:1005000090E085010A0F1B1F0E942F0C1D81212BDB
:100510001E81312B1F81412B1885512B1985612B91
:100520001A85712B1B85812B1C85912B2D833E8376
:100530004F83588769877A878B879C87D3CFBE0183
:100540006F5F7F4F83E391E00E94930888E9809377
:10055000EF008091ED008F29807F8093ED002D9634
:100560000FB6F894DEBF0FBECDBFDF91CF911F91C4
:100570000F91FF90BF90AF909F908F907F906F9062
:100580005F904F9008950F93CF93DF93CDB7DEB771
:100590002D970FB6F894DEBF0FBECDBF19821A8219
:1005A0001B821C821D821E821F82188619861A8653
:1005B0001B861C861D86BE016F5F7F4F8BE291E01C
:1005C0000E94C308882309F49FC080E18093ED0056
:1005D00089819A81AB81BC8188279927A07EBF71D0
:1005E00025E1B695A795979587952A95D1F780939C
:1005F000F30089819A81AB81BC818827907EAF719D
:10060000BB273DE0B695A795979587953A95D1F785
:100610008093F20089819A81AB81BC81807E9F7139
:10062000AA27BB2745E0B695A795979587954A9544
:10063000D1F78093F1008981880F880F880F80930C
:10064000F0002D813E814F81588569857A858B85A3
:100650009C8508E30E944A0C2093FA0020E030E0D9
:1006600040E050E060E070E08B8590E000E30E94A5
:100670004A0C2093FA007A8520E030E040E050E018
:1006800060E080E090E008E20E944A0C2093FA00CB
:10069000698520E030E040E050E070E080E090E0EC
:1006A00000E20E944A0C2093FA00588520E030E0D6
:1006B00040E060E070E080E090E008E10E944A0CD9
:1006C0002093FA004F8120E030E050E060E070E0DD
:1006D00080E090E000E10E944A0C2093FA003E8105
:1006E00020E040E050E060E070E080E090E008E072
:1006F0000E944A0C2093FA008D818093FA00109298
:10070000EE0088E58093EF002D960FB6F894DEBFDB
:100710000FBECDBFDF91CF910F91089520E12093BF
:10072000ED00FC01408151816281738183E0769507
:100730006795579547958A95D1F74093F300808147
:100740009181A281B38125E0880F991FAA1FBB1F49
:100750002A95D1F78093F2001092F1001092F000E8
:10076000EAEFF0E081E0808382E0808383E08083B1
:1007700084E0808385E0808386E0808387E08083D7
:1007800088E080831092EE0088E58093EF00089562
:100790001F920F920FB60F9211248F939F93809107
:1007A000ED00807F80931F011092ED008091EE009C
:1007B00085FF25C08091FA00809320018091FA0086
:1007C000809320018091FA00809320018091FA00AB
:1007D000809320018091FA00809320018091FA009B
:1007E000809320018091FA00809320018091FA008B
:1007F0008093200180FF02C0A39801C0A39A1092A9
:10080000EE0088E88093EF008091ED00807F90916A
:100810001F01892B8093ED009F918F910F900FBE48
:100820000F901F90189581E08093D8008091D90097
:1008300082FDFCCF1092E20084E08093E30082E12D
:100840008093E4001092ED0088E98093EF0010920D
:10085000EE001092F3001092F2001092F10010924C
:10086000F0001092F7001092F6001092F50010922E
:10087000F40080E18093ED001092EF001092EE0002
:100880001092F3001092F2001092F1001092F0001A
:100890001092F7001092F6001092F5001092F400FA
:1008A00082E0982F9295907F9093ED001092EF0048
:1008B0001092EE001092F3001092F2001092F100EC
:1008C0001092F0001092F7001092F6001092F500CE
:1008D0001092F40028E030E01092FA002150310923
:1008E000D9F78F5F8F30E9F61092DF008091D80042
:1008F00082608093D80090EA8091D90082FD03C085
:100900009093DB00F9CF08950C9A0B9A6C9A149A85
:1009100013980895749A089574980895CF93DF9367
:10092000EC010E948404C130D10531F0229741F4DA
:10093000DF91CF910C948C04DF91CF910C948A04B9
:10094000DF91CF9108959B9AA39A269A2E9A249A82
:100950002C9A0895882341F0813051F4A39A80E0C5
:100960000E945509139A04C0A39881E00E9455097A
:1009700088EE93E00C945F090C94B4093F924F9277
:100980005F926F927F928F929F92AF92BF92CF921F
:10099000DF92EF92FF920F931F93CF93DF93FC01AF
:1009A000EB01C42E922E80E090E0A0ECB1E08083B9
:1009B0009183A283B3832D8130E040E050E060E07A
:1009C00070E080E090E000E30E942F0C322E432E76
:1009D000542E652E762E872EB82FA92F2E8130E02B
:1009E00040E050E060E070E080E090E008E30E94CA
:1009F0002F0CD32CD22AE42CE32AF52CF42A162D22
:100A0000152BA72CA62AB82CB72AB82BA92B2C81DA
:100A100030E040E050E060E070E080E090E008E22C
:100A20000E942F0CD22AE32AF42A152BA62AB72AD1
:100A3000B82BA92B2B8130E040E050E060E070E063
:100A400080E090E000E20E942F0CD22AE32AF42AF0
:100A5000152BDA2DD62BCB2DC72BB82BA92B292D57
:100A600030E040E050E060E070E080E090E000E1E5
:100A70000E942F0CD22AE32AF42A152BD62BC72B3F
:100A8000B82BA92B2C2D30E040E050E060E070E066
:100A900080E090E008E10E942F0C2D293E294F298B
:100AA000512B6D2B7C2B8B2B9A2B248335834683E8
:100AB0005783608771878287938786E08487CF0119
:100AC000DF91CF911F910F91FF90EF90DF90CF902A
:100AD000BF90AF909F908F907F906F905F904F905E
:100AE0003F9008955F926F927F928F929F92AF9204
:100AF000BF92CF92DF92EF92FF920F931F93CF930B
:100B0000DF93FC01B42ED52FD22EC32F312FDB0162
:100B100018968C9190E0A0E0B0E02BE0880F991F30
:100B2000AA1FBB1F2A95D1F7A06CB260AC298083A5
:100B30009183A283B383202F912F990F990B492F73
:100B4000592F692F792F892F00E20E942F0C122F25
:100B5000532E3A014B01C82EA92F2E2D9F2D990FF0
:100B6000990B3F2D492F592F692F792F892F00E39A
:100B70000E942F0C122B3529A62CA42AE72CE52A3B
:100B8000F82CF62AB92DB72BC82A9A2BAD2FAA0F0D
:100B9000AA0B1B29D32BBA2CBA2AEA2AFA2ABA2B77
:100BA000CA2AA92B2D2D9C2F990F990B3C2F492F29
:100BB000592F692F792F892F00E10E942F0C212BAB
:100BC000D32B4B295E296F29B72B8C299A2B248391
:100BD000D583468357836087B1878287938788E070
:100BE0008487CF01DF91CF911F910F91FF90EF90FC
:100BF000DF90CF90BF90AF909F908F907F906F903D
:100C00005F9008953F924F925F926F927F928F9282
:100C10009F92AF92BF92CF92DF92EF92FF920F938B
:100C20001F93CF93DF93CDB7DEB7FC01142FF22EC5
:100C3000D02E2A2D382CDB0118968C9190E0A0E064
:100C4000B0E03BE0880F991FAA1FBB1F3A95D1F770
:100C5000A06CB2603C89A32B80839183A283B38371
:100C600030E040E050E060E070E080E090E000E1E3
:100C70000E942F0CA92DB0E02D0124293529912C9B
:100C8000A82DAA0FAA0B922A832E8328642E6A2AE3
:100C9000A52EAA2A762E7A2AB72EBA2AB82FBA2BD0
:100CA000A92B2C2D30E040E050E060E070E080E0C7
:100CB00090E008E10E942F0C922A832A642AA52A38
:100CC000762AB72AB82BA92B2E2D30E040E050E031
:100CD00060E070E080E090E000E20E942F0C922A39
:100CE000832AC62CC42AA52AE72CE62AB72AB82BC1
:100CF000A92B2D2D30E040E050E060E070E080E076
:100D000090E008E20E942F0C922A832AC42ADA2C4F
:100D1000D52AE62AB72AB82BA92B2F2D30E040E0A0
:100D200050E060E070E080E090E000E30E942F0C73
:100D3000922A832AC42AD52AE62AFB2CF72AB82B22
:100D4000A92B212F30E040E050E060E070E080E02F
:100D500090E008E30E942F0C292938294C295D29AD
:100D60006E297F298B2B9A2B2483358346835783C7
:100D7000608771878287938788E08487CF01DF91BE
:100D8000CF911F910F91FF90EF90DF90CF90BF9088
:100D9000AF909F908F907F906F905F904F903F901B
:100DA00008953F924F925F926F927F928F929F929F
:100DB000AF92BF92CF92DF92EF92FF920F931F9369
:100DC000CF93DF93CDB7DEB7DC01F42E102FFB01FC
:100DD0004084512C612C712C8BE0440C551C661CFA
:100DE000771C8A95D1F7F0EC6F2A689471F88C899A
:100DF000682A4D925D926D927C92139730E040E0AC
:100E000050E060E070E080E090E000E30E942F0C92
:100E1000722E632E442E352E962EB72EF82FE92FE4
:100E20002F2D30E040E050E060E070E080E090E0A6
:100E300008E30E942F0C722A632A442A532C552A55
:100E4000F92CF62ADB2CD72AF82BE92B212F30E0BE
:100E500040E050E060E070E080E090E008E20E9456
:100E60002F0C722A632A442A552AF62A1D2D172B85
:100E7000F82BE92B2E2D30E040E050E060E070E0F0
:100E800080E090E000E20E942F0C722A632A442A3C
:100E9000552AF62A172BF82BE92B2C2D30E040E0B1
:100EA00050E060E070E080E090E008E10E942F0CEC
:100EB000722A632AC42CC42AE52CE52AF62A172BA9
:100EC000F82BE92B2A2D30E040E050E060E070E0A4
:100ED00080E090E000E10E942F0C722AA62CA32A49
:100EE000C42AE52AF62A172BF82BE92B282D30E007
:100EF00040E050E060E070E080E090E008E00E94B8
:100F00002F0C27293A294C295E296F29712B8F2B09
:100F10009E2B14962C93149715963C931597169622
:100F20004C93169717965C93179718966C9318978F
:100F300019967C9319971A968C931A971B969C93E3
:100F40001B9787E01C968C931C97CD01DF91CF9166
:100F50001F910F91FF90EF90DF90CF90BF90AF90D7
:100F60009F908F907F906F905F904F903F900895EB
:100F70006F927F929F92AF92BF92CF92DF92EF9249
:100F8000FF920F931F93CF93DF93FC01148215827E
:100F9000168217821086118612861386DB01189638
:100FA0008C9190E0A0E0B0E03BE0880F991FAA1F71
:100FB000BB1F3A95D1F7A06CB260A22B80839183BE
:100FC000A283B383912CC12CD12CE12CF12C10E005
:100FD000D0E0C0E05A01B8E0AB0EB11C612C712C1E
:100FE000D5012E915D0130E040E050E060E070E01E
:100FF00080E090E0062D0E942F0C922AC32AD42A6A
:10100000E52AF62A172BD82BC92BB8E06B0E711CDA
:1010100080E46816710421F79482C582D682E78243
:10102000F0861187D287C38788E08487CF01DF915C
:10103000CF911F910F91FF90EF90DF90CF90BF90D5
:10104000AF909F907F906F9008950F931F93FC0136
:10105000DB0118968C9190E0A0E0B0E03BE0880FB7
:10106000991FAA1FBB1F3A95D1F7A06CB260A22BA3
:1010700080839183A283B383DA0111960C91119737
:1010800010E0102F00278C91082B04831583168203
:101090001782108611861286138682E08487CF011C
:1010A0001F910F910895FC011482158216821782F8
:1010B00010861186128613861486DB0117968C9192
:1010C00090E0A0E0B0E0A06480839183A283B3832A
:1010D000CF010895CF93DF93CDB7DEB72A970FB630
:1010E000F894DEBF0FBECDBF582F462F70E090E0C2
:1010F0004A8759870E94830C292F90915B0131E028
:10110000390F30935B01682F722F20E030E04A8561
:10111000598580E02A960FB6F894DEBF0FBECDBF8A
:10112000DF91CF9108951F93CF93DF93EC01FB01E3
:10113000F8942881422F50E0CA0101964B81642F18
:1011400070E00E941B0C99819817B9F0182FBF010D
:101150009E819F5F9E834A81429F90011124220FAE
:10116000331F220F331F8C819D8150E0820F931F0C
:101170000E94CC0D188381E001C080E07894DF915B
:10118000CF911F910895CF93DF93EC01F8942981BB
:1011900088819E81821302C09923F9F0FB0191504E
:1011A0009E839A81492F50E0929FB00111249B01A8
:1011B000220F331F220F331F6C817D81620F731F3B
:1011C000CF010E94CC0D898190E001966B8170E087
:1011D0000E941B0C898381E001C080E07894DF913C
:1011E000CF910895FC0183819681891B0895FC01AC
:1011F00086818823B1F0DB0192816181492F50E023
:10120000969FB00111249B01220F331F220F331F21
:1012100064817581620F731FCD010E94CC0D81E046
:10122000089580E00895CF93DF93CDB7DEB7279779
:101230000FB6F894DEBF0FBECDBF80E090E047E070
:101240009C01225A3E4FFE013196D901542F019044
:101250000D925A95E1F7F9011182079686349105AE
:1012600079F70E94310A789427960FB6F894DEBF7A
:101270000FBECDBFDF91CF9108958A30A8F4909131
:101280005D0127E0929FF0011124E25AFE4F21E018
:10129000218380837383628321E030E0358324835C
:1012A00016829F5F90935D010895E0915C0197E045
:1012B000E99FF0011124E25AFE4F86830895E091E0
:1012C0005C0127E0E29FF0011124E25AFE4F958372
:1012D000848382E081830895C7E0D1E08091A401F6
:1012E0008823E1F38091A40181508093A40110929E
:1012F0005C0180915C0190915D01891778F790E025
:10130000C89FF001C99FF00D1124E25AFE4F4181A0
:10131000413039F02481358121153105A1F4423065
:1013200091F4C89FD001C99FB00D1124A25ABE4F9D
:101330001196DC9311971296ED91FC9113971696E6
:101340008C9109950BC0C89FF001C99FF00D112425
:10135000E25AFE4F215031093583248380915C018C
:101360008F5F80935C01C5CFFC018FEF80878EED8E
:1013700083838DEA84838EEB85838FEE8683089545
:1013800080E00895FC01842F8F738783407C577021
:101390006627772796E076956795579547959A95AE
:1013A000D1F74087118212820895AF92BF92CF92F7
:1013B000DF92EF92FF920F931F93CF93DF931F92D1
:1013C000CDB7DEB77C016B015B0184E0A80EB11CD8
:1013D00000E010E0B501600F711F8BE491E00E9406
:1013E00093080F5F1F4F04301105A1F78DE089832B
:1013F000BE016F5F7F4F8BE491E00E9493088AE00B
:101400008983BE016F5F7F4F8BE491E00E94930858
:10141000F6014081518162817381DB01CA0126E0BE
:10142000B695A795979587952A95D1F78F712681BF
:10143000F7019381291719F09085981305C0C7010A
:101440000E94C20981E001C080E00F90DF91CF913E
:101450001F910F91FF90EF90DF90CF90BF90AF90D2
:10146000089582E080936E008BE084BD8DE787BD98
:1014700008951F920F920FB60F9211248F938091AF
:10148000A4018F5F8093A4018F910F900FBE0F90E6
:101490001F901895CF93DF931F92CDB7DEB7809141
:1014A000C00087FF0AC08091C6008983BE016F5FBC
:1014B0007F4F83E591E00E9493080F90DF91CF91D9
:1014C0000895CF93DF931F92CDB7DEB7BE016F5F54
:1014D0007F4F8BE491E00E94C308882339F080910C
:1014E000C00085FFFCCF89818093C6000F90DF91FB
:1014F000CF910895CF93DF931F92CDB7DEB7809140
:10150000C80087FF0BC08091CE008983BE016F5F4A
:101510007F4F83E491E00E949308F1CF0F90DF9119
:10152000CF910895CF93DF931F92CDB7DEB7BE0161
:101530006F5F7F4F8BE391E00E94C308882339F0EF
:101540008091C80085FFFCCF89818093CE000F90E9
:10155000DF91CF9108958130910519F0029769F0DC
:10156000089588E18093C1001092C50088E08093BF
:10157000C40086E08093C200089588E18093C9008A
:101580001092CD0083E38093CC0086E08093CA0064
:101590000895CF93DF931F92CDB7DEB7BE016F5F83
:1015A0007F4F83E491E00E94C3088823B1F08091CB
:1015B000C90181110FC08091A5019091A6010196EA
:1015C0009093A6018093A501FC01E955FE4F298166
:1015D0002083E4CF1092C901E1CF8091A5019091C1
:1015E000A601829731F48FEF9FEF9093A60180932D
:1015F000A5010F90DF91CF9108951092C9018FEF4F
:101600009FEF9093A6018093A501089582E191E058
:101610000C94BC04EF92FF920F931F93CF93DF9330
:10162000CDB7DEB72B970FB6F894DEBF0FBECDBF98
:1016300080E88093610081E08093610061E08FE049
:101640000E946A082093530130935401409355013E
:10165000509356016093570170935801809359013C
:1016600090935A0161E084E60E946A0820934B013E
:1016700030934C0140934D0150934E0160934F01C4
:1016800070935001809351019093520161E084E680
:101690000E946A082093430130934401409345011E
:1016A000509346016093470170934801809349012C
:1016B00090934A0161E08FE00E946A0820933B0109
:1016C00030933C0140933D0150933E0160933F01B4
:1016D0007093400180934101909342016DE08FE04F
:1016E0000E946A08209333013093340140933501FE
:1016F000509336016093370170933801809339011C
:1017000090933A016DE08FE00E946A0820932B01CC
:1017100030932C0140932D0150932E0160932F01A3
:101720007093300180933101909332016FE185E035
:101730000E946A08209323013093240140932501DD
:10174000509326016093270170932801809329010B
:1017500090932A0181E090E00E948E040E94A304ED
:101760000E9413040E94FD0A81E090E00E94AB0AEF
:1017700082E090E00E94AB0A0E9413096AEA74E0DA
:1017800080E00E943D0961E67AE081E00E943D0927
:101790006AE47AE082E00E943D0962E97AE083E04F
:1017A0000E943D096AE77AE084E00E943D0965EF06
:1017B00071E085E00E943D0963EC72E086E00E94E2
:1017C0003D0964E771E087E00E943D0969EC7AE039
:1017D00088E00E943D0965EA70E089E00E943D09C9
:1017E0008BE0E6E0F1E0DE01119601900D928A9522
:1017F000E1F78E010F5F1F4F7E018BE0E80EF11CB9
:10180000B8018BE491E00E9493080F5F1F4F0E1503
:101810001F05B1F70E946C0980E090E02B960FB68F
:10182000F894DEBF0FBECDBFDF91CF911F910F9116
:10183000FF90EF90089597FB072E16F4009407D0C1
:1018400077FD09D00E94660C07FC05D03EF4909508
:1018500081959F4F0895709561957F4F08950F93DF
:10186000083090F0982F872F762F652F542F432F15
:10187000322F22270850F4CF220F331F441F551F49
:10188000661F771F881F991F0A95B2F70F91089559
:1018900097FB10F8169400080F93083098F0085042
:1018A000232F342F452F562F672F782F892F902DD8
:1018B000F4CF0594979587957795679557954795B4
:1018C000379527950A95AAF70F910895AA1BBB1B78
:1018D00051E107C0AA1FBB1FA617B70710F0A61B30
:1018E000B70B881F991F5A95A9F780959095BC0151
:1018F000CD010895EE0FFF1F0024001C0BBE0790C2
:10190000F691E02D09940F931F93CF93DF93869F59
:101910008001879F100D969F100D1124C8010E9411
:101920009F0CEC01009729F0A80160E070E00E9494
:10193000D50DCE01DF91CF911F910F910895CF93D7
:10194000DF938230910510F482E090E0E091CC01C9
:10195000F091CD0120E030E0C0E0D0E0309711F10F
:101960004081518148175907C0F04817590761F461
:1019700082819381209719F09B838A832BC0909357
:10198000CD018093CC0126C02115310519F04217F5
:10199000530718F49A01BE01DF01EF010280F381C1
:1019A000E02DDCCF2115310509F1281B390B24303E
:1019B000310590F412968D919C91139761157105E4
:1019C00021F0FB019383828304C09093CD01809327
:1019D000CC01FD01329644C0FD01E20FF31F81935B
:1019E0009193225031092D933C933AC02091CA0122
:1019F0003091CB01232B41F420910201309103015E
:101A00003093CB012093CA01209100013091010154
:101A10002115310541F42DB73EB740910401509195
:101A20000501241B350BE091CA01F091CB01E217AF
:101A3000F307A0F42E1B3F0B2817390778F0AC01F1
:101A40004E5F5F4F2417350748F04E0F5F1F5093CE
:101A5000CB014093CA018193919302C0E0E0F0E092
:101A6000CF01DF91CF9108950F931F93CF93DF9311
:101A7000009709F48CC0FC01329713821282009106
:101A8000CC011091CD010115110581F42081318126
:101A9000820F931F2091CA013091CB01281739077B
:101AA00079F5F093CB01E093CA0171C0D80140E011
:101AB00050E0AE17BF0750F412962D913C9113974A
:101AC000AD012115310509F1D901F3CF9D01DA01ED
:101AD0003383228360817181860F971F821793075A
:101AE00069F4EC0128813981260F371F2E5F3F4FA3
:101AF000318320838A819B8193838283452B29F4C0
:101B0000F093CD01E093CC0142C01396FC93EE9389
:101B10001297ED01499159919E01240F351FE2174B
:101B2000F30771F480819181840F951F02961196BD
:101B30009C938E938281938113969C938E9312979C
:101B4000E0E0F0E0D80112968D919C9113970097F8
:101B500019F0F8018C01F6CF8D919C9198012E5FC0
:101B60003F4F820F931F2091CA013091CB0128175C
:101B7000390769F4309729F41092CD011092CC0105
:101B800002C0138212821093CB010093CA01DF912D
:101B9000CF911F910F910895FB01DC0102C00190CC
:101BA0000D9241505040D8F70895DC0101C06D936B
:0C1BB00041505040E0F70895F894FFCF3A
:101BBC000000CE012000426F6F74656476320D0A0E
:021BCC00000017
:00000001FF
