:020000040800F2
:10000000C4D500103F020008890100086D040008F3
:100010008D0100088F010008910100080000000018
:100020000000000000000000000000009301000834
:100030009501000800000000315D02087D5C0208A7
:100040009B0100089D0100089F0100084D26010842
:10005000A3010008A501000855CF010871CF0108D0
:100060008DCF0108A9CF0108C5CF010895C80108A7
:10007000B3010008B5010008B7010008E915000840
:10008000BB010008BD010008BF010008C101000854
:10009000C3010008C5010008C7010008E1CF01083D
:1000A000B99B0108CD010008CF010008959A01080D
:1000B000D3010008D5010008999A0108D901000868
:1000C000DB010008DD010008DF010008E101000894
:1000D000E3010008991400080915000879150008C3
:1000E00059D00108ED01000835190208190202086B
:1000F000F3010008F5010008F7010008F901000804
:10010000FB01000851440108091801080102000818
:100110000D16000805020008070200084D3102080C
:1001200089C801080D0200080F02000855440108A3
:1001300013020008A1C80108ADC8010845E601087E
:10014000E1E501081D0200081F0200086919020804
:10015000230200087D16000875140008A116000887
:100160002B0200082D0200082F02000831020008AF
:100170003302000835020008B9C80108C56100084B
:080180003B0200083D020008EB
:10018800FEE7FEE7FEE7FEE7FEE7FEE7FEE7FEE73F
:10019800FEE7FEE7FEE7FEE7FEE7FEE7FEE7FEE72F
:1001A800FEE7FEE7FEE7FEE7FEE7FEE7FEE7FEE71F
:1001B800FEE7FEE7FEE7FEE7FEE7FEE7FEE7FEE70F
:1001C800FEE7FEE7FEE7FEE7FEE7FEE7FEE7FEE7FF
:1001D800FEE7FEE7FEE7FEE7FEE7FEE7FEE7FEE7EF
:1001E800FEE7FEE7FEE7FEE7FEE7FEE7FEE7FEE7DF
:1001F800FEE7FEE7FEE7FEE7FEE7FEE7FEE7FEE7CF
:10020800FEE7FEE7FEE7FEE7FEE7FEE7FEE7FEE7BE
:10021800FEE7FEE7FEE7FEE7FEE7FEE7FEE7FEE7AE
:10022800FEE7FEE7FEE7FEE7FEE7FEE7FEE7FEE79E
:10023800FEE7FEE7FEE71348854624F009FA4EF686
:100248008850CEF20000016851F47001016000BFCF
:1002580000BF00BFF1EE100A50F04070E1EE100A46
:100268004FF0000080F314884EF63C71CEF2000186
:10027800086850F04070086003480449016000F0C5
:1002880007B870470000022008ED00E000000008F1
:100298002C49072291438D462B482C492C4A00F0C3
:1002A8003EF82C482C492D4A00F039F82C482D49A5
:1002B8002D4A00F034F82D482D492E4A00F02FF829
:1002C8002D482E492E4A00F02AF82E482E492F4A4A
:1002D80000F025F82E482F49002200F02BF82E4870
:1002E8002E49002200F026F82D482E49091A08291F
:1002F80003DB00220260043001601D481D4988426A
:1003080005D00268043003B4904703BCF7E7002027
:100318008646EC4600200021234A9047FEE78842A3
:1003280007D0521A05D0037801300B700131013A19
:10033800F9D17047884202D002700130FAE770475D
:100348001A487047C4D50010D8A60308000000203A
:1003580074080020B8030008B8030008C06E03083A
:100368004CAF030828B7012028B70120C06E030846
:10037800C06E0308C06E0308C06E0308C06E030891
:10038800C06E0308C06E0308C06E0308D8A6030831
:1003980074080020286F012000000010C4D100104C
:1003A800286F012028B70120B9030008FFFFFFFFCD
:1003B80038B515F015F900F0EDFB4FF4A0602CF0FE
:1003C80031FE24F021FA46F6C061C0F603014FF46D
:1003D800C87000F049F941F2243400F23C63054644
:1003E800C2F2000449F20C0241F60D100021C0F2DD
:1003F8000102C0F60100256025F046FA24F046FA0D
:10040800002038BD4EF6FC52CEF200024FF4805365
:1004180011682DE9F041CEF2000341F080701060C0
:100428001D680E4E0E4C45F0010241F2040782B0E1
:100438001A600025CEF20007B04600F049F823689C
:10044800591C21603868451B0195019B326893420D
:1004580002D20199C8F800100546EEE70000002016
:100468007408002008B502F055FDFEE770B54B088A
:1004780082B00D46064625D00020441C5B08E0B239
:10048800FBD107281DD906F1047315330838590123
:1004980001EB8004684622602DF0FCFB0223002259
:1004A80030468DF805306946012300958DF8062001
:1004B8008DF804308DF807202DF044FB204602B05B
:1004C80070BD830006F10474143403EB4414E1E7AF
:1004D8002DE9F84FDFF8A880D8F80030002B38DD78
:1004E800254F002407F11A06254607F1620A07F18D
:1004F800320937F8020F00283AD054F80A100A785F
:10050800FF2A37D1002310F0010F0A4610D101232A
:10051800834210DA4978FF291A4409D00BE012F80F
:10052800011FFF2907D112F8011F0133FF2902D14A
:1005380001338342F3DB36F8020B9842C8BF26F832
:10054800023C0F2B07DDD8F8002001350434AA42FD
:10055800CFDCBDE8F88F05F0EFF840218346074A65
:1005680059F8043034F028FA584605F0F7F8EAE765
:100578000346E0E70023DEE7FEFFFF0FC86E03082F
:10058800800800202DE9F041104E3368002B074603
:1005980019DD0025DFF838802C4603E030688442F6
:1005A800254610DA08EB85013846096B142234F029
:1005B800ABFA0134A4B20028F0D1054A02EB450594
:1005C800288BBDE8F0810020BDE8F081800800207C
:1005D8000000001038B500FB01F474B134F088F95C
:1005E800094B0A4A05461868116824188C421C6091
:1005F80088BF146025B1284638BD2546284638BD31
:10060800034805F0ABF8F6E77808002084080020D6
:10061800E86E030838B50C46154630B134F078F961
:10062800024B1A6804FB15241C6038BD78080020AA
:1006380038B50A4D01FB00F1CC1C2B68A408E01862
:10064800B0F5205F05D828600549021B01EB820040
:1006580038BD044805F082F82868F5E77C080020D2
:1006680090000010006F03082DE9F843174C87002D
:10067800BEB225684FEA960808EB0500B0F5205F82
:1006880089461DD82060124CC8EB000104F1900384
:1006980003EB81053A46FF21284634F0FBFB0D4A5F
:1006A800136804EB830104EB4307581C10600D66C4
:1006B80024F813603E83C1F830902846BDE8F883DB
:1006C800054805F04BF82068DDE700BF7C080020EE
:1006D8000000001080080020006F03084FF44063FA
:1006E800C4F200031A46596A4018536A9842FCD863
:1006F800704700BF4FF44062C4F200024FF47A71B1
:10070800536A01FB0030536A9842FCD8704700BF17
:1007180070B582B005F010F80446022002F066F9C0
:100728000546012002F062F90646002002F05EF953
:1007380046F614720190009620464021C0F6030246
:100748002B4634F039F9204602B0BDE8704005F078
:1007580005B800BF30B585B004F0EEFF044621F0BF
:10076800A7F9054621F0A0F9082301900293062075
:1007780046F62C7246F658730390009520464021A1
:10078800C0F60302C0F6030334F016F9204605B09C
:10079800BDE8304004F0E2BF70B584B004F0CCFF8F
:1007A8000446022002F022F90646012002F01EF952
:1007B8000546002002F01AF946F614724021334625
:1007C800C0F6030201900095204634F0F5F8204663
:1007D80004F0C4FF04F0B0FF0446002002F006F95C
:1007E80044F6D353C1F26203A3FB00121309FA259E
:1007F80046F6647205FB13034021C0F60302204647
:1008080034F0DAF8204604F0A9FF04F095FF40F62A
:100818009001C2F200014DF683630A68C4F21B33EB
:10082800A3FB021546F67872AB0C4021C0F6030212
:10083800044634F0C1F8204604F090FF40F67804EE
:1008480004F07AFF40F68401C2F20004C2F200010B
:1008580023680C6846F68C724021C0F603020546F0
:10086800009434F0A9F8284604F078FF04F064FFF7
:1008780040F67C03C2F2000346F6A8721D68AB007E
:100888004FF420454021C0F603020446009534F099
:1008980093F8204604F062FF642025F033F904F051
:1008A8004BFF044621F004F9054621F0FDF8062225
:1008B80001900392082046F62C7246F6587302906F
:1008C800009520464021C0F60302C0F6030334F029
:1008D80073F8204604B0BDE8704004F03FBF00BF85
:1008E80080ED010A704700BF80ED010A80ED030A20
:1008F80080ED050A704700BFC0EE200A80ED011A9E
:10090800C0ED000A704700BFC0EE200A80ED011A52
:10091800C0ED000AC0ED020A80ED031AC0ED040A1A
:1009280080ED051A704700BFD0ED017A90ED007A8E
:1009380030EE670A40EE077AB0EE670AC0ED017A3A
:10094800704700BFD0ED057AD0ED046A30EE670A33
:1009580090ED037A40EE267AD0ED020A37EEC76AA8
:1009680090ED010A06EE207A90ED001A77EE401A13
:10097800C0ED057A01EE810A80ED037A80ED010A67
:10098800704700BF70B44468437A04EB830181ED7B
:10099800000A427A037A511C91FBF3F503FB151206
:1009A8004272002B48D0D5B295FBF3F2016803FBE5
:1009B800125004EB8002D2ED007A9FED210A91EDEE
:1009C800007A0122581E934200F0010007EE270A20
:1009D80030DD80B16A1C92FBF3F003FB102204EBBC
:1009E8008202043192ED001AD1ED000A02229342EC
:1009F80000EE810A1EDD501990FBF3F6013203FB6D
:100A0800160604EB86065019D1ED011A96ED002A58
:100A180090FBF3F603FB160001EE820A04EB80005C
:100A2800D1ED022A90ED003A01320831934202EEEC
:100A3800830AE0DC70BC70479FED010AFAE700BF4B
:100A48000000000010B480E8060000210372417223
:100A5800A3B19B0004210024181F99421460C0F31D
:100A680080000BD020B10821994242F8044F05D0EC
:100A780008315460946008329942F9D110BC70472B
:100A8800F0B52DED048BB5EEC00AF1EE10FA87B083
:100A9800B0EE408A04460E465ED40025B0EE480A01
:100AA80032F04EF940B16019374934F02BFA03207F
:100AB80007B0BDEC048BF0BDB0EE480A32F054F933
:100AC800074600284ED1062E28BF062607EE906A54
:100AD800B2EE040AF8EEE70A33F00EFAB5EEC08A71
:100AE800F1EE10FABDEEC09A07DDB0EE480A33F019
:100AF800E7F8BDEEC00A10EE107A00EE907AB2EE7A
:100B0800040AF8EEE00A33F0F7F988EE008AB7EE47
:100B1800001AB4EEC18AF1EE10FA29D4FDEEC88AA3
:100B280032461A4902A833F05DFFB8EEE82AB8EE5B
:100B3800C99A78EE422A02A922EE893A18EE902A3A
:100B4800BDEEC38A009718EE103A601933F04AFFD9
:100B5800204634F029FAABE72D230370B1EE408A22
:100B680001259BE760190A4934F0CCF903209FE777
:100B7800B5EE408AF1EE10FAD0D0F2EE041A28EE63
:100B8800218A013FCAE700BFC06F0308C86F030886
:100B9800C46F030830B5012183B01F204FF480656E
:100BA8002DF02AF9C4F2020568464FF400642DF0CE
:100BB80071F8C4F2020403224FF6FF73284669460F
:100BC8008DF8042000932CF0BDFF204669462CF0D8
:100BD800B9FF4FF440606946C4F202002CF0B2FF3E
:100BE8004FF480506946C4F202002CF0ABFF00209D
:100BF80049F6FF736946C4F2020000932CF0A2FF85
:100C0800202101222046FFF731FC40F68802C2F27B
:100C180000021021106000222046FFF727FC40F652
:100C28008C01C2F20001012208604FF4806128465D
:100C3800FFF71CFC40F6A003C2F200030121186074
:100C48004FF4C0002DF0D8F801214FF480402DF06A
:100C5800FDF8272001212DF0EBF803200121C0F237
:100C680007002DF0F3F801202DF090FC2DF030F95D
:100C780040F69000C2F200002DF042F818F088FC0F
:100C880003B030BD30B4836990F84C206AB941692B
:100C980099420AD04469A34209D241694269056967
:100CA8008261CC1A90F84C1049B130BC704782610F
:100CB800C56890F84C10EC1A05690029F5D1826BCB
:100CC8004065EB18054D012180F84C10056510466C
:100CD800D360546030BC2CF091BD00BF8D0C00086F
:100CE80038B590F84C400CB1002038BD856B0365D1
:100CF800049B012480F84C404365E960284621465E
:100D08006A602CF07BFD204638BD00BF2DE9F0431A
:100D1800012085B088465C219146FFF75BFC364B85
:100D28000446012502A800261C6002272CF0B2FF09
:100D3800102029468DF80D508DF80C708DF80E6036
:100D48008DF80F502DF082F8B04514BF4046802032
:100D58000146E0612846FFF73DFC20623046072245
:100D68000A21C4F202002CF0A7FF30464FF480623B
:100D780002A9C4F2020002922CF0E4FE334646F2C5
:100D88004040C1F23D034FF00068C4F202006364C2
:100D980049466063C4F83C80C4F80C902846FFF7C5
:100DA80019FC2061304607220921C4F202002CF008
:100DB80083FF30464FF4007202A9C4F20200029287
:100DC8002CF0C0FE46F2B841C4F202014FF03D508B
:100DD800A064462301A8A163C4F840808DF80430BC
:100DE8008DF805708DF806608DF807502CF024F901
:100DF800204605B0BDE8F083A40800202DE9F043A3
:100E0800012085B088465C219146FFF7E3FB354B0E
:100E18000446012502A800261C6002272CF03AFF90
:100E280029464FF400208DF80D508DF80C708DF880
:100E38000E608DF80F502CF0FBFFB04514BF4046F4
:100E480080200146E0612846FFF7C4FB2062304657
:100E580008222946C4F202002CF02EFF304602A9CF
:100E6800C4F2020002972CF06DFE334646F24002AF
:100E7800C1F23D03C4F202024FF0006863644946C0
:100E88006263C4F83C80C4F80C902846FFF7A2FBC4
:100E98002061304608223146C4F202002CF00CFFD3
:100EA800304602A9C4F2020002952CF04BFE3D2008
:100EB80046F27001C4F20201C2F20000A0640F22DF
:100EC80001A8A163C4F840808DF804208DF805704E
:100ED8008DF806608DF807502CF0AEF8204605B066
:100EE800BDE8F083B00800202DE9F043012085B06B
:100EF80088465C219146FFF76DFB384B0446012577
:100F080002A81C6000262CF0C5FE022720202946D6
:100F18008DF80D508DF80C708DF80E608DF80F500F
:100F28002CF094FFB04514BF404680200146E06194
:100F38002846FFF74FFB20624FF400600822072184
:100F4800C4F202002CF0B8FE4FF40060802202A91F
:100F5800C4F2020002922CF0F5FD46F228404FF44C
:100F68007463C1F200034FF02068C4F202006364A6
:100F780049466063C4F83C80C4F80C902846FFF7E3
:100F880029FB20614FF4006008220621C4F2020008
:100F98002CF092FE4FF40060402202A9C4F2020035
:100FA80002922CF0CFFD304646F2A041C4F2020175
:100FB800C2F23D00A064452301A8A163C4F84080A3
:100FC8008DF804308DF805708DF806608DF807509F
:100FD8002CF032F8204605B0BDE8F083B4080020B4
:100FE8002DE9F0474FF48054C4F20104A04298B0B0
:100FF80006468846174600F0C8804FF48840C4F279
:101008000000864200F0C8804FF49041C4F200010D
:101018008E4200F004814FF49842C4F200029642D6
:1010280000F042814FF4A055C4F201050024AE42FD
:1010380000F0A4800020014623F076FD0025A5627B
:101048000121656284F85800A5613046A7802663AF
:101058006561C4F80080E58025812DF0E9FE05A8CA
:101068002DF0CCFE2168A388B4F808E0E788206B4F
:1010780005910C2205A9ADF82030ADF81AE0ADF8BD
:101088001E20ADF81850ADF81C702DF047FE012158
:10109800206B2DF0BFFE09A82CF09EFB606B0E950F
:1010A800311D4FF480630A910F9310951195139594
:1010B800159500285BD02CF055FA226AE16BE3699C
:1010C800606B09910B9209A94FF480720D931292EB
:1010D8000C951495169517952CF03AFB606B616C7E
:1010E8002CF0A6FB0121606B2CF088FB30464021D8
:1010F80001222DF0ABFE606B2CF096FBE062A06B3A
:1011080000282DD02CF02EFA256CE36809950025CF
:10111800AB4208BF10234022A06B0C9209A94FF4E0
:1011280000020D93042314931692129517952CF030
:101138000FFBA06B29462CF075FBA06B1021012238
:101148002CF092FB3046802101222DF07FFE5A4878
:10115800016819B1204618B0BDE8F0870460F9E7C6
:10116800304640F2277101222DF07AFEEFE7304633
:1011780040F2255101222DF073FEC0E7384619468A
:10118800209AFFF7B1FE044654E710461946209A04
:10119800FFF7BCFD04464DE75C2101200193FFF7F2
:1011A80019FA46490125044603A84FF000094FF0F3
:1011B800020A0C602CF06EFD29464FF400308DF8C1
:1011C80011508DF810A08DF812908DF813502CF056
:1011D8002FFE0198484508BF80200146E061284657
:1011E800FFF7F8F92062484607220321C4F20200FB
:1011F8002CF062FD48460823C4F2020003A90393B9
:101208002CF0A0FC262202A88DF808208DF809A051
:101218008DF80A908DF80B502BF00EFF0AE75C2131
:1012280001200193FFF7D6F9254B0446012503A8B1
:101238001C602CF02FFD0023022229464FF4802049
:101248008DF812308DF810208DF811508DF813504C
:101258002CF0EEFD0198002808BF80200146E061CF
:101268002846FFF7B7F920624FF480600722C4F2DE
:1012780002000B212CF020FD4FF4806003A9C4F27A
:1012880002004FF4006503952CF05CFC46F228013F
:101298004FF47463C4F20201C1F200034FF000621C
:1012A8006163E2636364C5E638461946209AFFF72E
:1012B800A5FD0446BEE600BFB8080020A808002027
:1012C800AC0800204269036930B499544169C36885
:1012D800846B4A1CB2FBF3F103FB112242619CB1FF
:1012E800826990F84C1069B94569AA420AD04569E3
:1012F800AA423CBF436941690569816190F84C1075
:101308009B1A41B130BC7047006B40F22771012233
:1013180030BC2DF0A5BDAA18054D4065012180F807
:101328004C1005652046E260636030BC2CF066BA5C
:101338008D0C0008436B2BB15968C36AC81A18BFD3
:1013480001207047826A406A101A18BF012070474E
:10135800426B10B403465AB1C06AD9691A6A081AAE
:10136800105CDA6A013ADA6202B9D96210BC7047D5
:10137800806A196ADA69085C9C6A611CB1FBF2F43C
:1013880002FB14129A62F1E770B5044684B001605A
:101398000121006B2DF04CFD68462DF02FFD2368D0
:1013A800A2882689E588206B009369460023ADF85A
:1013B8000C200C22ADF80430ADF80660ADF80850EA
:1013C800ADF80A202DF0AAFC206B01212DF022FD9A
:1013D80004B070BD70B5044684B0C1800121006BB3
:1013E8002DF026FD68462DF009FD2368A288268980
:1013F800E588206B009369460023ADF80C200C2289
:10140800ADF80430ADF80660ADF80850ADF80A2024
:101418002DF084FC206B01212DF0FCFC04B070BD84
:1014280070B5044684B001810121006B2DF000FDE8
:1014380068462DF0E3FC2368A2882689E588206B9E
:10144800009369460023ADF80C200C22ADF8043057
:10145800ADF80660ADF80850ADF80A202DF05EFC36
:10146800206B01212DF0D6FC04B070BD40F6A4031A
:10147800C2F2000310B51C68A06BA16C2CF0D8F95F
:10148800002084F84C00216D606D884710BD00BFB6
:101498001A4B1B68196B0A8892B202F0200080B2BE
:1014A80010B460B1586A8C88196AE4B20C54586A4E
:1014B800D9690130B0FBF1F401FB1401596202F063
:1014C800800290B280B199695A6991420ED09869A8
:1014D8001A69196B105CDA68888099690131B1FB67
:1014E800F2F002FB10129A6110BC7047186B40F2C0
:1014F8002771002210BC2DF0B3BC00BFA408002047
:101508001A4B1B68196B0A8892B202F0200080B24D
:1015180010B460B1586A8C88196AE4B20C54586ADD
:10152800D9690130B0FBF1F401FB1401596202F0F2
:10153800800290B280B199695A6991420ED0986937
:101548001A69196B105CDA68888099690131B1FBF6
:10155800F2F002FB10129A6110BC7047186B40F24F
:101568002771002210BC2DF07BBC00BFA80800200A
:101578001A4B1B68196B0A8892B202F0200080B2DD
:1015880010B460B1586A8C88196AE4B20C54586A6D
:10159800D9690130B0FBF1F401FB1401596202F082
:1015A800800290B280B199695A6991420ED09869C7
:1015B8001A69196B105CDA68888099690131B1FB86
:1015C800F2F002FB10129A6110BC7047186B40F2DF
:1015D8002771002210BC2DF043BC00BFAC080020CE
:1015E80040F6B003C2F2000310B51C68A06BA16CF2
:1015F8002CF01EF9002084F84C00216D606D88479E
:1016080010BD00BF1A4B1B68196B0A8892B202F012
:10161800200080B210B460B1586A8C88196AE4B2AC
:101628000C54586AD9690130B0FBF1F401FB14017C
:10163800596202F0800290B280B199695A69914268
:101648000ED098691A69196B105CDA6888809969F4
:101658000131B1FBF2F002FB10129A6110BC704725
:10166800186B40F22771002210BC2DF0F9BB00BFA7
:10167800B008002040F6B403C2F2000310B51C689D
:10168800A06BA16C2CF0D4F8002084F84C00216DDC
:10169800606D884710BD00BF1A4B1B68196B0A881C
:1016A80092B202F0200080B210B460B1586A8C88FF
:1016B800196AE4B20C54586AD9690130B0FBF1F4E4
:1016C80001FB1401596202F0800290B280B199695D
:1016D8005A6991420ED098691A69196B105CDA68D8
:1016E800888099690131B1FBF2F002FB10129A610E
:1016F80010BC7047186B40F22771002210BC2DF007
:10170800AFBB00BFB40800202DE9F00F4AF29003E8
:10171800C1F200032DED0A8BF0EE08BA9FEDFECA68
:101728009FEDFEBAC3ED06BAC3ED0FBADFEDFCBA02
:1017380083ED00CABFEE00CA83ED01CAC3ED10BA3B
:1017480083ED17BA83ED18BAB1EE08CADFEDF5BA22
:101758009FEDF5BA83ED09CAB1EE0CCA83ED0ACA4A
:10176800C3ED11BA83ED1ABAB2EE00CADFEDEFBAD3
:101778009FEDEFBA83ED0BCAB2EE02CADFEDED7A48
:10178800DFEDED6ADFEDED3A83ED0CCAC3ED13BA78
:1017980083ED1BBAB2EE04CADFEDE9BA9FEDE9BAF0
:1017A800B7EE007AB3EE046AF5EE004AB0EE005ADE
:1017B800B1EE049AF1EE002A83ED0DCAB2EE06CA24
:1017C800C3ED027AC3ED037A83ED047A83ED055AFB
:1017D800C3ED072A83ED089A83ED0ECAC3ED127A8A
:1017E800C3ED146AC3ED156AC3ED16BA83ED196A21
:1017F800C3ED1C7AC3ED1D7A83ED1EBAC3ED1F4AF3
:10180800C3ED203AC3ED213AC3ED223ADFEDCE3ADB
:10181800C3ED243ADFEDCD3A9FEDCD4AC3ED253A2D
:10182800DFEDCC3A83ED284AC3ED263A83ED294A09
:1018380083ED2A4ADFEDC83A9FEDC84AC3ED274A2F
:1018480083ED2B4AC3ED2C3AC3ED2F4A9FEDC44AD2
:10185800DFEDC43ADFEDC44A9FEDC4AADFEDC4AAA8
:1018680083ED2D4AC3ED2E3AC3ED314A9FEDC14AAF
:10187800DFEDC13ADFEDC14ADFEDC15AF7EE049A58
:1018880083ED23AAC3ED30AAC3ED32AA83ED33AAB0
:10189800C3ED346A83ED354AC3ED367AC3ED377A42
:1018A800C3ED389AC3ED393AC3ED3A7AC3ED3B9AA2
:1018B800C3ED3C7AC3ED3D7AC3ED3E7AC3ED3F7A82
:1018C800C3ED407A9FEDAF4AC3ED417AC3ED454A77
:1018D800DFEDAD4AC3ED427AC3ED437AC3ED447AF6
:1018E800C3ED467AC3ED477AC3ED487AC3ED497A2A
:1018F800C3ED4A7AC3ED4B7AC3ED4C7AC3ED4D7A0A
:10190800C3ED4E7AC3ED4F7AC3ED507AC3ED517AE9
:10191800C3ED527AC3ED537AC3ED547AC3ED557AC9
:10192800C3ED567AC3ED577AC3ED587AC3ED597AA9
:10193800C3ED5A7AC3ED5B7AC3ED5C7AC3ED5D7A89
:10194800C3ED5E7AC3ED5F7AC3ED607AC3ED617A69
:10195800C3ED627ADFED8D3AC3ED637AC3ED647A45
:10196800C3ED657AC3ED667AC3ED677AC3ED687A2D
:10197800C3ED697AC3ED6A7AC3ED6B7AC3ED6C7A0D
:10198800C3ED6D7AC3ED6E7AC3ED6F7AC3ED707AED
:10199800C3ED717AC3ED727AC3ED737AC3ED747ACD
:1019A800C3ED757AC3ED767AC3ED777AC3ED787AAD
:1019B800C3ED797AC3ED7A7AC3ED7B7AC3ED7C7A8D
:1019C800C3ED7D7AC3ED7E7AC3ED7F7AC3ED807A6D
:1019D800C3ED817AC3ED827AC3ED837AC3ED847A4D
:1019E800C3ED857AC3ED865AC3ED8A5AC3ED8B5A87
:1019F800C3ED8C5A83ED8D5A83ED915AF7EE085A50
:101A0800B2EE055ADFED628ADFED621A9FED628A57
:101A180083ED874AC3ED894AC3ED965A83ED9A5AF6
:101A28009FED5E4ADFED5E4ADFED5E5A9FED5E5A3E
:101A3800B0EE040AC3ED883A83ED946A83ED9C6A9C
:101A480083ED9D6AF6EE003AB3EE0E6A03F2AC51EE
:101A580003F2144703F5826C03F20C4803F581691D
:101A680003F2044A03F5806B03F5B46603F2A45548
:101A780003F5B56403F5B662C3ED8E7AC3ED8F7ACC
:101A8800C3ED907AC3ED927AC3ED937A83ED959A7C
:101A9800C3ED977AC3ED987A83ED997A83ED9B4AE3
:101AA80083ED9E6AC3ED9F3AC3EDA07AC3EDA18A88
:101AB800C3EDA27AC3EDA38AC3EDA41AC3EDA54A68
:101AC800C3EDA65A83EDA78A83EDA88A83EDA95AA8
:101AD800C3EDAA7A83EDAB0AC3EDAC7A83EDAD0A08
:101AE800C3EDAE7AC3EDAF7AC3EDB07AC3EDB17A88
:101AF800C3EDB27AC3EDB37AC3EDB47AC3EDB57A68
:101B0800C3EDB67AC3EDB77AC3EDB87AC3EDB97A47
:101B1800C3EDBA7A50E000BF000000430000204245
:101B2800004088440000BD4400C0B4443333333F10
:101B38000000344300000000CDCC4C3D003C1C4666
:101B4800000070420028074700A0B4449A99393F22
:101B58000000C143000070430000914300805944D5
:101B680052491D3B004003460000B4430000964420
:101B780000403544ACC5A7370AD7233D004083440D
:101B88000000E147000061480000E148001B374AB7
:101B980000C079440000484300002F448FC2F53B41
:101BA8006666364000001643CDCC4C3E00A00C457E
:101BB80000803B44A913503CC3EDBB7A83EDBC7A4B
:101BC80083EDBD7A83EDBE7AC3EDBF7AC3EDC07AEB
:101BD800C3EDC17AC3EDC27AC3EDC37AC3EDC47A4B
:101BE800C3EDC57AC3EDC67AC3EDC77AC3EDC87A2B
:101BF800C3EDC97AC3EDCA7AC3EDCB7AC3EDCC7A0B
:101C0800C3EDCD7AC3EDCE7AC3EDCF7AC3EDD07AEA
:101C1800C3EDD17AC3EDD27AC3EDD37AC3EDD47ACA
:101C2800C3EDD57AC3EDD67AC3EDD77AC3EDD87AAA
:101C3800C3EDD97A83EDDA7A83EDDB7A83EDDC7A4A
:101C4800C3EDDD7AC3EDDE7AC3EDDF7AC3EDE07A6A
:101C5800C3EDE17AC3EDE27AC3EDE37AC3EDE47A4A
:101C6800C3EDE57AC3EDE67AC3EDE77AC3EDE87A2A
:101C7800C3EDE97AC3EDEA7AC3EDEB7AC3EDEC7A0A
:101C8800C3EDED7AC3EDEE7AC3EDEF7AC3EDF07AEA
:101C9800C3EDF17AC3EDF27AC3EDF37AC3EDF47ACA
:101CA800C3EDF57AC3EDF67AC3EDF77A83EDF87AEA
:101CB80083EDF97A83EDFA7AC3EDFB7AC3EDFC7A0A
:101CC800C3EDFD7AC3EDFE7AC3EDFF7A00235FED25
:101CD800490A1FED491ACCF28223CAF80030A1F54F
:101CE800CA73C7ED007AC3ED000A87ED021AC3ED87
:101CF800020A87ED041AC3ED041A18374FF460433B
:101D0800C4F2C4433B604FF48043C4F2B4437B60E5
:101D180040F64133C3F63443CBED007AC9ED007A7F
:101D2800C8ED007ACCED007ABB6040F6A163C3F63B
:101D38006A43FB604DF20A73C3F6A3333B61A1F516
:101D4800B673C3ED007AC3ED027A4FF48043C4F250
:101D580003537B620023C4F27A43BB62A1F5AA73E2
:101D6800C3ED007AC3ED027A0023C4F26003FB637B
:101D780043F23333C4F253033B6445F6C043C4F221
:101D880013137B6441F25D63C4F26D13BB6449F6BF
:101D98003643CCF26B23C7ED067AC7ED087AC7ED58
:101DA8000C7AC7ED0E7AFB64503743F26673C4F2BF
:101DB800E9233B604DF2AE63CCF2D6237B6042F65A
:101DC800CD131FED842AC4F21723BB60A1F59273CB
:101DD800C3ED007AC3ED027A83ED042A40F2DE53A4
:101DE800C3F6CA43BAEE043A7B62A1F5847383ED65
:101DF800003A0023CCF2C813FB624EF68533C4F2D6
:101E08006913C7ED047AC7ED067A87ED082A3B63A4
:101E180087ED0D7A87ED0E7AC7ED0F2A4CF6CD4384
:101E2800C7ED106A87ED113A4837C4F294133B6046
:101E3800C7ED027A07F15C03C7ED047AC7ED067AAD
:101E4800C7ED017AC7ED037AC7ED057AC7ED077AC2
:101E5800C7ED087AC7ED097AC7ED0A7AC7ED0B7A9C
:101E6800C7ED0C7AC7ED0D7AC7ED0E7AC7ED0F7A7C
:101E7800C7ED107AC7ED117AC7ED127AC7ED137A5C
:101E8800C7ED147AC7ED157AC7ED167A46F6DC70F9
:101E98006037C7ED007AC7ED027AC7ED047AC7ED5F
:101EA800067AC3ED007AC3ED027AC3ED047AC3ED76
:101EB800067AC3ED087AC0F60300C7ED087AC7EDC5
:101EC8000A7AC7ED0C7AC7ED0E7AC7ED107AC7ED1E
:101ED800127AC7ED147AC7ED167AC7ED187AC7EDEE
:101EE8001A7AC7ED1C7AC7ED1E7A7837C3ED0A7ADD
:101EF800C3ED0C7AC3ED0E7AC3ED107AC3ED127AF6
:101F0800C3ED147AC3ED167AC3ED187AC3ED1A7AC5
:101F1800C3ED1C7AC3ED1E7AC6ED007AC5ED007AD2
:101F2800C4ED007AC1ED007AC2ED007ABDEC0A8BEF
:101F3800BDE8F00F03F012BC01464FF0016050F805
:101F48001C2D0132FBD1072200F0D8BB00214FF035
:101F5800016353F81C2D824208BF19460132F8D19B
:101F6800084670472DE9F04700F03CFD194FDFF8AF
:101F7800688000F5E45A06460AF1040A40F2B459AA
:101F880030463968102232F057FD10B93269124BC9
:101F98001A60042439591022304632F04DFD251DAF
:101FA8001022444408B9306920603046795932F02B
:101FB80043FD18B9316908EB050211602C1D4C4529
:101FC800E8D114365645DBD10448BDE8F04703F0A4
:101FD800C5BB00BF0400002090A0001000700308DB
:101FE8002DE9F84340F26D101421FEF7F3FA074685
:101FF80000287DD0002304464FF00166B3B153F8A2
:102008001C2C511CA3F11C0519D0C5B1206818B9A6
:1020180004E054F81C0F08B19042FAD12046294632
:102028001C2232F013FF2B46002BE8D156F81C2C4B
:10203800531C04D04FF6E475C0F60F05E6E700F030
:10204800D1FC40F2217100F0C5FBC4B200202BF096
:102058008BFC2BF097FC01202BF086FC002C3BD04E
:102068003B6873B13C464FF0016050F81C1D4B1C97
:10207800FBD12146072200F041FB54F81C0F002831
:10208800F1D1DFF884901D4EA9F5B66510223846C7
:10209800296832F0DBFE326807F114043A61696896
:1020A8001022204632F0D2FE736804F1140823612E
:1020B800A9681022404632F0C9FEB168083561624D
:1020C800083628344D45EAD100F08CFC394640F2F8
:1020D800217200F013FBC4B2384640F26D1114228D
:1020E800FEF798FA064803F039FB2046BDE8F88366
:1020F800044803F033FB3C46F7E700BF90A000100C
:10210800307003085C700308B405002010B503683C
:102118004268D118B1F5B77F044603D3C3F5B67248
:1021280001324260054904F1080001EB8301920085
:1021380032F08CFE6068800010BD00BF90A00010D7
:1021480070B504460E4D0068626804F108069200F6
:10215800314605EB800032F079FE23686268D118B9
:10216800B1F5B77F03D3C3F5B670421C626005EBC7
:1021780083013046920032F069FE6368980070BDB2
:1021880090A000102DE9F04F814683B08A461120B7
:1021980001211446FEF71EFA0546002866D0BAF15A
:1021A800000F48DD334E344FCA4407E040F6BC0206
:1021B800C2F2000213550134D1453CD019F8013B55
:1021C8000A2B01D07F2CF1D140F6BC00C2F20000EE
:1021D8000023035529492A4601AB32F019FC02288D
:1021E80032D128463168112240F2B45832F024FC2A
:1021F80010B90198204908604FF0040B112256F8D5
:102208000B10284632F018FC0BF10404112207EBDE
:102218000B0308B9019818602846315932F00CFCB4
:1022280010B93919019A0A6004F1040BC345E5D1C4
:102238000024D145C2D1284611210122FEF7EAF92E
:10224800204603B0BDE8F08F0D480E492A4601AB81
:1022580032F0DEFB0228C4D009480B492A4601ABFC
:1022680032F0D6FB0228BCD00024E2E74FF0FF345E
:10227800E6E700BF0400002090A000109C7003084F
:10228800BC080020BC700308B4700308274B70B565
:10229800002808BF184617F071F8061E37DB4FF400
:1022A80000700121FEF796F900250446002833D076
:1022B80021464FF0FF324FF40073304617F0B4F860
:1022C8002A46051E2946204612DDFFF75BFF051E3C
:1022D800EEDA304617F0FCF820464FF40071012280
:1022E800FEF798F9FF25124803F038FA68B270BD76
:1022F800304617F0EDF820464FF400710122FEF742
:1023080089F98DB90B4803F029FA68B270BD0A48FB
:1023180003F024FAFF25E9E7084803F01FFA3046DE
:1023280017F0D6F8FF25E1E7EDB2DCE7C470030843
:102338006871030834710308D0700308F870030843
:102348002DE9F0472DED028B00F04CFB564FDFF8DE
:102358005C8100F5E45A06460AF1040A40F2B459D1
:1023680030463968102232F067FB10B932694F4B9A
:102378001A60042439591022304632F05DFB251DBD
:102388001022444408B9306920603046795932F047
:1023980053FB18B9316908EB050211602C1D4C4537
:1023A800E8D114365645DBD1414803F0D7F900206F
:1023B800FFF76CFF002870DB13F0C4F800F012FB85
:1023C80090ED048AB0EE480A30F0CEFCB0B9DFEDEB
:1023D800397AB4EEE78AF1EE10FA11D498ED000AD2
:1023E800B4EEC08AF1EE10FA23DAB4EEC80AF1EEC0
:1023F80010FA18DCBDEC028BBDE8F0879FED2E8A41
:1024080098ED000A9FED2B7AB4EEC70AF1EE10FAA8
:10241800E6D5FFF779F9254B93ED000AB4EEC80A23
:10242800F1EE10FAE6DDBDEC028BBDE8F047FFF7F0
:10243800D7BD00F0D7FA00F5E455064605F1040AC1
:1024480040F2B45930463968102232F0F5FA10B922
:102458003469164B1C60042439591022304632F076
:10246800EBFA251D102208EB040108B93069086051
:102478003046795932F0E0FA18B9326908EB0504A8
:1024880022602C1D4C45E7D114365645DAD1084850
:1024980003F064F998ED000AA7E700214A460348CB
:1024A80032F0F8FC8AE700BF0400002090A000107A
:1024B80000700308000000430000000070B50646E5
:1024C8000D4610200121FEF785F80446B8B10D4BE2
:1024D80003EB850191ED000A0A21FEF7D1FA0A48BB
:1024E8000A4950F825202346304632F07BFA10215D
:1024F800C5B201222046FEF78DF868B270BD0546C8
:1025080068B270BD90A00010040000209C71030800
:102518005F4B2DE9F047002808BF184616F02EFF3C
:10252800B0F10008C0F2958080200121FEF752F832
:102538000446002800F0938010200121FEF74AF895
:10254800DFF868910646A8B1A9F5B665514F95ED33
:10255800000A0A21FEF794FA33464F493A682046A2
:1025680032F040FAC3B21021304601225EB2FEF7C3
:1025780051F87EB9404616F0ABFF20468021012273
:10258800FEF748F84FF0FF36444803F0E7F83046C6
:10259800BDE8F087404621464FF0FF32334616F03B
:1025A8006DFF40B2864236DDE4E74FF0FF32214648
:1025B8003346404616F062FF42B20121102096428F
:1025C800D8DCFEF707F80A2106460028D2D095ED98
:1025D800010AFEF755FA7A682F493346204632F049
:1025E80001FA5FFA80FA1021304601224FFA8AFA7E
:1025F800FEF710F804350437BAF1000FBAD0404698
:1026080021464FF0FF32534616F038FF46B2B24526
:10261800B0DC4D452CD001211020FDF7DBFF0A214D
:1026280006460028A6D095ED010AFEF729FA7A6831
:1026380019493346204632F0D5F9C3B21021304645
:1026480001225EB20435FDF7E5FF0437002E91D074
:10265800ABE7134803F082F84FF0FF3697E71148CD
:1026680003F07CF8404616F033FF4FF0FF368EE754
:10267800404616F02DFF802101222046FDF7CAFFB3
:10268800002E81DB084803F069F83046BDE8F08782
:10269800C4700308040000209C7103083C720308FE
:1026A800A8710308D07103080872030840A6001037
:1026B8002DE9F041104D102229680746002440F208
:1026C8006D1832F021FAA0B1012408E0384671688B
:1026D800013432F019FA60B10134444509D069680F
:1026E8001022384632F010FA2E1D10220835002824
:1026F800ECD12046BDE8F081040000202DE9F84324
:10270800044617460D462BF047F9F3202BF060F9E5
:10271800002F5DD07B1E2046296803F001092BF0AD
:10272800B5F909282E460FD0204629682BF0AEF9B6
:10273800092809D0204631682BF0A8F900242BF08D
:102748003DF92046BDE8F8834FF001080434B84548
:102758003ED0B9F1000F11D02E1D204631682BF064
:1027680095F9092805D0204631682BF08FF90928FA
:10277800E0D108F101080434B84529D055F82810EB
:1027880020462BF083F9092805EB8806204605D05A
:1027980055F828102BF07AF90928CBD108F101084F
:1027A8000434204655F828102BF070F90928A14662
:1027B80005EB8806204605D055F828102BF066F959
:1027C8000928B7D108F10108B84509F10404D5D1A1
:1027D8000124B4E7F8B504460E46A0B32BF0DCF8A4
:1027E800F3202BF0F5F804F1784243F6FF739A4290
:1027F80000F28280002504EB860606F1784443F651
:10280800FF70844247D9A4F5804383426ED80826D6
:10281800B5423ED8022128462BF058F9771B0928E3
:102828002C46C7F3C0071FD0022128462BF04EF9CB
:10283800092819D0204602212BF048F900242BF052
:10284800BDF82046F8BD2BF0A7F8F3202BF0C0F810
:102858000024C0F60E0404F1774505F57F03B3F5AF
:10286800803F6BD22025C6E7582D12D005F1080409
:10287800B4420ED847B3022120462BF027F9092885
:1028880005D0022120462BF021F90928D2D1582C55
:1028980027D10124D3E70026BAE70221582C04F1F6
:1028A800080420462546F4D02BF010F90221092807
:1028B800204603D02BF00AF90928BBD1582D05F181
:1028C8000804E6D0B442E4D8022120462BF0FEF8F2
:1028D800022109282046E0D02BF0F8F80928A9D1D0
:1028E800DBE70834B442EFD90124A8E7A4F5004196
:1028F800814214D810268BE7A2F580410825994219
:102908007FF679AFA2F50040102598427FF673AFA5
:10291800A2F5404218259A427FF66DAF9BE7A4F5D1
:102928004042824201D8182672E706F1774606F53A
:102938007F04B4F5803F0BD2202669E74FF6FF707D
:1029480005F57E01C0F2010081420BD8282552E727
:102958004FF6FF7006F57E03C0F20100834207D8E8
:10296800282655E705F57C02824207D8302542E73C
:1029780006F57C01814207D8302649E705F57A0338
:10298800834207D8382536E706F57A02824207D807
:1029980038263DE705F57801814207D840252AE722
:1029A80006F57804844207D8402631E705F5760213
:1029B800824207D848251EE706F57603834208D8E1
:1029C800482625E705F5740585428CBF582550250E
:1029D80011E706F57406B6F5003F2CBF58265026B9
:1029E80016E700BF0020C0F60E00704747F6102318
:1029F800C1F6FF7353F82000704700BF4AF24463E2
:102A080030B4C1F2000300F113014FF440641568BB
:102A180003EBC101C4F2000403EB8003606A4D605C
:102A280052688A60C3F8200130BC7047C1B20F29D0
:102A38002DE9F8438ABFA1F110070F46FFB281467E
:102A4800481CC6B22D4D012031464FEA87081BF0BD
:102A580057FC05EB08046060B0B9642023F052F815
:102A6800012031461BF04CFC606068B9642023F0FB
:102A780049F8012031461BF043FC606020B964200E
:102A880023F040F8606858B3012118F055FEDFEDD7
:102A98001C7A80EE270AA84405EB4704D8F80410EE
:102AA8004FF000500022012305EB8705FCEEC00A19
:102AB80010EE906AA4F8DC6109791BF0A3FAD8F843
:102AC80004304FF00050642219791BF069FB4FF471
:102AD8004062C4F20002506AC5F86401BDE8F88398
:102AE80002F02AFE4021074A09F10103044631F0A9
:102AF80063FF2046BDE8F84302F030BE44A600104C
:102B08000AD7233CC88803084AF29003C1F200039D
:102B1800D3ED447A9FED087A60EE270A93ED430AD5
:102B280080EE871AD3ED421A21EE002A22EE010A1E
:102B380001EE210A704700BF00F07F459FED010AB2
:102B4800704700BF00F07F452DE9F04F7A4EDFF85F
:102B5800F4C1DFF8F4B12DED028BA6F144084FF46F
:102B6800406A83B09FED758ADFED758A4746454612
:102B7800002440F6FF79C4F2000A36E0D6F8602156
:102B8800002A40D09CF8C01101F00400C1B200290D
:102B98006FD0DBED400A01EE903A9BED451AF8EE56
:102BA800615A31EE602A9BED416A65EE822ABDEEDC
:102BB800C63AC2EEA83A106813EE101A30EEA34ACD
:102BC800FDEEC44A14EE903A8B4206DBBDEEC15AC4
:102BD80015EE101A8B42B8BF19460160013404364D
:102BE8000235102C08F104084CD03B1993F8B002B8
:102BF8000028F3D0B5F8FC314B4528BF4B46082CCC
:102C0800A5F8FC31BADD56F8403C002BE6D0DAF8DE
:102C18002410D6F8E0000A1A07EE102AF8EE477AD0
:102C2800F4EEC87AF1EE10FA41DDDAF82410D6F89D
:102C380020010A1A06EE902AB8EE660AB4EEC80A0F
:102C4800F1EE10FA57DC3F4B0193019890F8C03130
:102C580003F00402D1B2002937D0B5F8FC11D8F836
:102C68004420B1F5CC7F35DD494537D80B0198B202
:102C780032E01268013404360235102C116008F174
:102C88000408B2D197F8D12262B100235C1C07EB8B
:102C9800C301E0B284311BF0D3FA97F8D102844221
:102CA8002346F3DB03B0BDEC028BBDE8F08F07EBE6
:102CB800C40191F8A4004207C5D19CF8C02121495C
:102CC80002F00400C2B201915AB9D8F844000023B6
:102CD800038083E741F6901010807FE74FF6F0708D
:102CE800FAE71979CDF800C04FF000501BF00CF846
:102CF800DDF800C0A9E704F1140107EBC1000022C8
:102D08004260826019790F4BCDF800C04FF0005037
:102D1800019301231BF076F956F8402C4FF0005030
:102D2800117964221BF03CFADAF82410DDF800C0AF
:102D3800C6F8201189E700BF88A60010002474494E
:102D480000F07F4520C6001090A0001070B46B48BA
:102D58006B4B90F904126B4A02EE901AA3F2AF2162
:102D680092ED427AD2ED437A90ED7E3A92ED444A62
:102D7800DFED654ADFED653ADFED651A01F50770AD
:102D880001F5177201F2BF25B1EE005AB7EE006ADD
:102D980040F6FF76B0EE082A56E0B442A8BF3446A3
:102DA800A4B2A1F8FC415C7802310430043201334A
:102DB800002C44D027EE851A52ED106A21EE260A1F
:102DC80007EE070AB1EEC01A77EEA75A71EE476A06
:102DD80086EE250A50F8784C66EE806AFCB1D2ED92
:102DE800005AF4EE665AF1EE10FA0CD036EEE51AF7
:102DF800B5EEC01AF1EE10FA78DD41EE026A41EE46
:102E0800215AC2ED005AB8EEE20A60EE235A35EEB6
:102E1800C31A81EE250A70EE065A66EEA56A66EEBA
:102E2800A46A86EE841ABDEEC10A10EE104A002C80
:102E380057DBB442A8BF3446A4B2A1F8FC41023122
:102E480004300432AB424ED05C780133002CAAD057
:102E580067EE855A52ED106A25EEA60A07EE070AB4
:102E6800B1EEC01A77EEA75A71EE476A86EE250AC8
:102E780050F8784C66EE806A34B3D2ED005AF4EE1E
:102E8800665AF1EE10FA13D036EEE51AB5EEC01A0E
:102E9800F1EE10FAD8BF61EE020A41EE215AD6BF10
:102EA80070EEA00A41EE026A76EEA06AC2ED005A00
:102EB800B8EEE20A60EE235A35EEC31A81EE250A0F
:102EC80070EE065A66EEA56A26EEA41A81EE040A8A
:102ED800FDEEC05A15EE904A002CBFF65EAF0024F6
:102EE8005FE70024A9E770BCFFF72EBE61EE020A77
:102EF80070EEA00A76EEA06A81E700BF3C090020C8
:102F0800F3A8001090A0001000F07F45CDCC6C40D5
:102F18009A99993E2DE9F84F894EDFF82CA2DFF8EF
:102F28002CB2A6F1440400254FF440692DED028B24
:102F380027469FED848AA846C4F2000933E0D6F8F4
:102F48006021002A38D09AF8C031126803F00400D2
:102F5800C1B229B19BED3F1AFCEEC11A11EE901ACD
:102F6800116001356319043693F8B0220237AAB10B
:102F7800082DA7F8FC8144DCD6F86001002840D071
:102F88009AF8C011026801F00403D8B228B19BED89
:102F98003F4AFCEEC44A14EE900A1060013504362C
:102FA8000237102D55D0631993F8B0020028D8D0F5
:102FB800082DA7F8FC81C2DD56F8403C002BD0D084
:102FC800D9F82410D6F8E0000A1A07EE102AF8EE0D
:102FD800477AF4EEC87AF1EE10FA53DDD9F82410E6
:102FE800D6F82021881A00EE100AF8EE400AF4EE0E
:102FF800C80AF1EE10FA00F387803168A1F8008062
:10300800AFE756F8403C002BC8D0D9F82410D6F8C2
:10301800E020881A02EE100AF8EE422AF4EEC82AD6
:10302800F1EE10FA41DDD9F82400D6F82011421A41
:1030380003EE102AF8EE433AF4EEC83AF1EE10FA2D
:1030480046DC3068013504360237102DA0F80080C0
:10305800A9D194F8D12200215AB14D1C04EBC10129
:103068008431E8B21BF0ECF894F8D1329D4229463D
:10307800F3DB0020C4F8A802C4F8AC02BDEC028B54
:10308800BDE8F88F04EBC50191F8A4004007B4D15E
:103098009AF8C02102F00401C8B20028ADD04FF060
:1030A800005019791AF030FEA7E704EBC50191F832
:1030B800A4205107C5D19AF8C00100F00401CAB292
:1030C800002ABED04FF0005019791AF01DFEB8E75B
:1030D80005F1140004EBC0010022C1F80480C1F816
:1030E800088019794FF0005001231AF08BFF56F829
:1030F800403C64224FF0005019791BF051F8D9F880
:103108002420C6F820219CE705F1140104EBC10234
:103118004FF00050C2F80480C2F8088019790022E4
:1031280001231AF06FFF56F8403C4FF00050197910
:1031380064221BF035F8D9F82400C6F820015CE7B2
:1031480088A600100024744920C6001090A0001022
:1031580038B5134D95F8D13253B101240020E1B2AE
:103168001AF0D2FD95F8D122204601348242F5DCCE
:103178006968B9B108791AF019FA0378022093B985
:10318800012022F0BFFC064A506800791AF00EFAB6
:10319800017839B9012022F0B5FC002038BD00BF04
:1031A80044A600100120AB688BB118791AF0FEF91B
:1031B800027802205AB9012022F0A4FC94488168C0
:1031C80008791AF0F3F90378002BE3D00120EA68B4
:1031D8008AB110791AF0EAF90178022059B9012068
:1031E80022F090FC8A48C36818791AF0DFF902784F
:1031F800002ACFD00120296989B108791AF0D6F9B7
:10320800037802205BB9012022F07CFC8048026927
:1032180010791AF0CBF901780029BBD001206B692D
:103228008BB118791AF0C2F9027802205AB9012034
:1032380022F068FC7648416908791AF0B7F90378F2
:10324800002BA7D00120AA698AB110791AF0AEF92B
:103258000178022059B9012022F054FC6C48836996
:1032680018791AF0A3F90278002A93D00120E969A5
:1032780091B108791AF09AF90378022063B901200C
:1032880022F040FC6248C26910791AF08FF901787F
:1032980000293FF47FAF01202B6A93B118791AF007
:1032A80085F90278022062B9012022F02BFC5848E7
:1032B800016A08791AF07AF90378002B3FF46AAFAB
:1032C80001206A6A92B110791AF070F90178022027
:1032D80061B9012022F016FC4D48436A18791AF0AA
:1032E80065F90278002A3FF455AF0120A96A91B127
:1032F80008791AF05BF90378022063B9012022F0FB
:1033080001FC4348826A10791AF050F901780029C3
:103318003FF440AF0120EB6A93B118791AF046F9EF
:103328000278022062B9012022F0ECFB3848C16A19
:1033380008791AF03BF90378002B3FF42BAF0120F2
:103348002A6B92B110791AF031F90178022061B92B
:10335800012022F0D7FB2E48036B18791AF026F9C2
:103368000278002A3FF416AF0120696B91B1087901
:103378001AF01CF90378022063B9012022F0C2FB7D
:103388002348426B10791AF011F9017800293FF4AB
:1033980001AF0120AB6B93B118791AF007F90278E5
:1033A800022062B9012022F0ADFB1948816B08792F
:1033B8001AF0FCF80378002B3FF4ECAE0120EA6B1E
:1033C80092B110791AF0F2F80178022061B901205F
:1033D80022F098FB0E48C36B18791AF0E7F80278C8
:1033E800002A3FF4D7AE0120296CA9B108791AF058
:1033F800DDF8007888B9012022F084FB044B1A6CB0
:1034080010791AF0D3F8017800293FF4C3AE01E02F
:1034180044A60010012038BD38BD022038BD00BFC9
:1034280038B5084D95F8D13253B101240020E1B2E6
:103438001AF0B0FC95F8D122204601348242F5DC1E
:1034480038BD00BF44A600102DE9F04F2DED048BC8
:103458007E48DFF80C9285B002F080F900217C48A4
:103468004FF4357231F016FDD9ED3E7A9FED7D7A35
:10347800F4EEC77AF1EE10FA07DD9FED760AF4EE66
:10348800C07AF1EE10FA00F19384714B724A9FED05
:10349800738A1C461146F0EE488AB0EE489A1A60C4
:1034A8009A4600250126A2F58C7B01EB0517D7ED7E
:1034B800000AF5EE400AF1EE10FA40F0D58097EDDB
:1034C800011AB5EE401AF1EE10FA40F0CD80D7EDB2
:1034D800021AF5EE401AF1EE10FA40F0C58097EDA9
:1034E800032AB5EE402AF1EE10FA40F0BD8001350E
:1034F800102D0AF1040A00F0ED80276807EB051784
:1035080097ED007AB5EE407AF1EE10FA14D197ED06
:10351800010AB5EE400AF1EE10FA0DD1D7ED020A14
:10352800F5EE400AF1EE10FA06D197ED031AB5EE62
:10353800401AF1EE10FA30D0D9ED3C1ABCEEE12A6F
:1035480006FA05F112EE103A194240F05E81DBED01
:103558003D2ABCEEE23A13EE102A11EA020340F0CB
:103568006C81082D40F3E6825FFA85F8601980F8CF
:10357800B06294F8D01262184B1C82F8C08284F8AA
:10358800D032D7ED013A97ED024AD7ED036A39EE0A
:10359800239A78EE848A38EE268A20686F1C00EB1E
:1035A8000718D8ED004AF5EE404A0AF10401F1EE99
:1035B80010FA039114D198ED015AB5EE405AF1EE84
:1035C80010FA0DD1D8ED025AF5EE405AF1EE10FA84
:1035D80006D198ED036AB5EE406AF1EE10FA2FD0E5
:1035E800D9ED3C7ABCEEE77A06FA07F317EE102A13
:1035F800134240F010819BED3D0AFCEEC00A10EE2C
:10360800900A034040F01481082F40F37D825FFA4E
:1036180087FCE71987F8B06294F8D032E218581C92
:1036280082F8C0C284F8D00298ED011AD8ED021AC7
:1036380098ED032A39EE019A78EEA18A38EE028ACB
:1036480002350AF1080A21682FE700BFEC88030851
:1036580044A60010EC518040A8A100100000000012
:1036680090A000100AD7233CD9ED3C2ABCEEE23AE0
:1036780006FA05F013EE101A084240F0C080DBEDA0
:103688003D3ABCEEE34A14EE103A034040F0C980DC
:10369800082D5FFA85F840F328826219013582F80F
:1036A800B06294F8D0022118431C81F8C08284F8D3
:1036B800D032D7ED016AD7ED024A97ED035A102DA3
:1036C80039EE269A78EEA48A38EE058A0AF1040AB9
:1036D8007FF413AFB0EE490A30F0B8FE5FED1F5A21
:1036E800B4EEE50AF1EE10FA00F33D82B0EE680A96
:1036F80030F0ACFE1FED256AB4EEC60AF1EE10FA02
:1037080000F32D82B0EE480A30F0A0FE5FED2B7A70
:10371800B4EEE70AF1EE10FA00F31D826568A34ED5
:103728006DB1012128790A461AF06EF996F8D1721E
:1037380006F18402781C726486F8D1020125A1681A
:103748009A4E89B16F1C0879FAB201211AF05CF916
:10375800012D00F00C8296F8D13206F184055A1C2E
:10376800B56486F8D1223D46E168904EA1B16F1C40
:103778000879FAB201211AF047F9012D00F0FB810E
:10378800022D00F0238396F8D13206F184055A1CE5
:10379800F56486F8D1223D462669844FD6B105F1F5
:1037A8000108012130795FFA88F21AF02DF9022D0B
:1037B80000F0E681032D00F00383012D00F00B8358
:1037C80097F8D16207F18405731C3D6587F8D132FB
:1037D800454600266369002B3ED006F101086F1CA0
:1037E80018795FFA88F1FAB21AF00EF9032D00F28F
:1037F8005282DFE815F0270057025C026102284672
:10380800FFF714F95FFA85F847E72846FFF70EF93E
:103818005FFA85F8AAE63846FFF708F95FFA87FCE9
:10382800F7E605F11000FFF701F95FFA85F834E7CC
:1038380007F11000FFF7FAF8E9E605F11000FFF7C5
:10384800F5F891E694F8D10204EBC6018431431CE3
:10385800616584F8D1323D46A269DAB106F1010802
:103868006F1C10795FFA88F1FAB21AF0CDF8032DBF
:1038780000F22782DFE815F004002C02310236023C
:1038880094F8D11204EBC60284324B1CA26584F86A
:10389800D1323D46E069D8B106F101086F1C0079C4
:1038A8005FFA88F1FAB21AF0AFF8032D00F21F821E
:1038B800DFE815F00400240229022E0294F8D13220
:1038C80004EBC6028432581CE26584F8D1023D46F6
:1038D800216AD9B106F101086F1C0879FAB25FFABA
:1038E80088F11AF091F8032D00F21782DFE815F03D
:1038F80004001C022102260294F8D10204EBC6023D
:103908008432411C226684F8D1123D46636ADBB1D9
:1039180006F101086F1C18795FFA88F1FAB21AF0FB
:1039280073F8032D00F20F82DFE815F0040014028B
:1039380019021E0294F8D11204EBC60284324B1C01
:10394800626684F8D1323D46A06AD8B106F1010812
:103958006F1CFAB200795FFA88F11AF055F8032D56
:1039680000F20782DFE815F004000C0211021602CB
:1039780094F8D13204EBC6028432581CA26684F84B
:10398800D1023D46E16AE9B106F101086F1C0879E8
:10399800FAB25FFA88F11AF037F8032D00F2348191
:1039A800DFE815F0060039013E01430144A6001086
:1039B80094F8D10204EBC6028432411CE26684F812
:1039C800D1123D46236BDBB106F101086F1CFAB238
:1039D80018795FFA88F11AF017F8032D00F22A8196
:1039E800DFE815F004002F013401390194F8D112F1
:1039F80004EBC60284324B1C226784F8D1323D4660
:103A0800606BD8B106F101086F1C00795FFA88F184
:103A1800FAB219F0F9FF032D00F22281DFE815F060
:103A2800040027012C01310194F8D13204EBC602BD
:103A38008432581C626784F8D1023D46A16BC9B133
:103A480006F101086F1C0879FAB25FFA88F119F0DB
:103A5800DBFF032D00F21A81DFE805F002B6BBC0D8
:103A680094F8D10204EBC6028432411CA26784F8A0
:103A7800D1123D46E36BCBB106F101086F1C1879F2
:103A88005FFA88F1FAB219F0BFFF032D00F2AD809A
:103A9800DFE805F002B0B57C94F8D11204EBC60259
:103AA80084324B1CE26784F8D1323D46206C88B1E1
:103AB800711C6A1CD2B20079C9B219F0A5FF032D96
:103AC80008D8DFE805F06A757B0204EBC6038A3381
:103AD800C4F88030FFF71EFAB148012105B0BDECEB
:103AE800048BBDE8F04F1AF03BBC4FF43D414FF456
:103AF800625200934046C0F20151C0F2010215F033
:103B080083FDCAF8A401C8E55FFA87FC4FF43D417C
:103B18004FF462526046C0F201510093C0F20102B4
:103B2800CDF808C015F070FD0399C1F8A401DDF8BF
:103B380008C06EE55FFA85F84FF43D414FF46252D4
:103B480000934046C0F20151C0F2010215F05CFD3D
:103B5800CAF8A4010AE5934801F000FEDEE59248A0
:103B680001F0FCFDCEE5914801F0F8FDBEE506F157
:103B78008600B064F7E506F18601F1643D460BE680
:103B880007F1880139654546002623E604EBC60699
:103B98008A36E6674646002588E794F8D13204EB72
:103BA800C6028432581CC4F8802084F8D10291E7F8
:103BB80004EBC6018631C4F880108BE704EBC6001D
:103BC8008830C4F8800085E704EBC6038633A36712
:103BD8004FE704EBC6058835A5674AE704EBC60638
:103BE8008A36A6674646002544E7042F3D467FF4FB
:103BF8005DAFCFE704EBC6008630E06755E704EB1E
:103C0800C6058835E56750E7042F3D467FF4DAAEF0
:103C180046460025D6E604EBC6038633E366D0E6BF
:103C280004EBC6058835E566CBE604EBC6068A369E
:103C3800E666EDE7042F3D467FF4E2AE46460025F2
:103C4800DEE604EBC60086302067D8E604EBC6053E
:103C580088352567D3E604EBC6068A362667EDE77E
:103C6800042F3D467FF4EAAE46460025E6E604EB1F
:103C7800C60186316167E0E604EBC60588356567ED
:103C8800DBE604EBC6068A366667EDE7042F3D4699
:103C98007FF4F0AEA6E7042F3D467FF4DDAD46463F
:103CA8000025D9E504EBC60286326265D3E504EB4C
:103CB800C60588356565CEE504EBC6068A366665B1
:103CC800EDE7042F3D467FF4E5AD46460025E1E5E6
:103CD80004EBC6008630A065DBE504EBC605883535
:103CE800A565D6E504EBC6068A36A665EDE7042F7A
:103CF8003D467FF4EDAD46460025E9E504EBC601F7
:103D08008631E165E3E504EBC6058835E565DEE562
:103D180004EBC6068A36E665EDE7042F3D467FF4D8
:103D2800F5AD46460025F1E504EBC6038633236668
:103D3800EBE504EBC60588352566E6E504EBC60623
:103D48008A362666EDE7042F3D467FF4FDAD4646EC
:103D58000025F9E504EBC60086306066F3E504EB60
:103D6800C60588356566EEE504EBC6068A366666DE
:103D7800EDE7042F3D467FF405AE4646002501E6F3
:103D880004EBC6018631A166FBE504EBC605883560
:103D9800A566F6E504EBC6068A36A666EDE700BF1B
:103DA800052A000890890308688903083C890308E4
:103DB8000C4805B0BDEC048BBDE8F04F01F0CEBC5B
:103DC80007F18A0038650025012603E506F1880019
:103DD800F0643D46E0E407F186023A654546002670
:103DE800F8E400BFFC8803082DE9F00FAA4B197A04
:103DF80093F806C0FF2986B0024600F0D88008066E
:103E08002FD4987AFF2800F0D78010F0800F28D19F
:103E18001C7BFF2C00F0D68014F0800F21D19D7BF5
:103E2800FF2D00F0D58015F0800F1AD11E7CFF2ED3
:103E380000F0D48016F0800F13D19F7CFF2F00F084
:103E4800D38017F0800F0CD192F81C80B8F1020FC4
:103E580000F02681B8F1070F00F0CF80B8F1010F0C
:103E680004D0002006B0BDE8F00F704718795979E2
:103E7800894C41EA002589481561D0ED037A987983
:103E8800BDEEE70AFF2810EE101A00F0A781E579C9
:103E9800C0F3C30400F00706A14245EA062000F07B
:103EA800F780A0F58065966926F8145001201C7AE1
:103EB800794DFF2C00F0B0816D7A04F00706C4F349
:103EC800C304A14245EA062000F0AE81A0F5806552
:103ED800966926F8145001209C7A6F4DFF2C00F04B
:103EE8009681ED7A04F00706C4F3C304A14245EABB
:103EF800062000F09681A0F58065966926F8145092
:103F080001201C7B644DFF2C00F07C816D7B04F04C
:103F18000706C4F3C304A14245EA062000F08A81DB
:103F2800A0F58065966926F8145001209C7B5A4DAF
:103F3800FF2C00F06281ED7B04F00706C4F3C30494
:103F4800A14245EA062000F07281A0F580659669D5
:103F580026F8145001201C7C4F4DFF2C00F048819E
:103F68006D7C04F00706C4F3C304A14245EA0620A9
:103F780000F06381A0F58065966926F81450012049
:103F88009B7C454CFF2BE47C00F02E8103F007005E
:103F9800C3F3C30344EA0024994292690CBFA4F511
:103FA800A974A4F5806422F8134001205AE7587ACE
:103FB800FF287FF456AF24E7374CE47AFF2C7FF4D0
:103FC80050AF25E7344D6D7BFF2D7FF44AAF26E7D0
:103FD800314EF67BFF2E7FF444AF27E72E4F7F7CD0
:103FE800FF2F7FF43EAF28E7DFF8AC8098F8138006
:103FF800B8F1FF0F7FF435AF26E793F8058093F803
:10400800099093F807B0CDF80490C4445BFA8CFC8F
:1040180093F80BA093F80D90CDF808A051FA8CF105
:10402800DDF804C0CDF80C905CFA81F150FA81F10A
:10403800029893F80FA0DDF80CC0CDF810A050FA44
:1040480081F193F8119093F813A0CDF8149054FAD5
:1040580081F05CFA80F10498DDF814C093F80490BC
:1040680055FA81F150FA81F156FA81F05CFA80F143
:1040780057FA81F05AFA80F1C8B281457FF4F1AE5F
:1040880008F01F0118F0800F11613FF4EAAE0CE050
:10409800A0F5A97507E700BF18A9001090A00010A7
:1040A8001C79587940EA042111617F4998797F4C3D
:1040B800D1ED030ABDEEE01AFF2811EE101A00F048
:1040C800C880E47900F0030544EA0524C0F38300BE
:1040D8006500814200F0E480A5F58065946924F8C4
:1040E8001050187A714CFF2800F0AE80647A00F006
:1040F800030544EA0524C0F383006500814200F00B
:10410800CC80A5F58065946924F81050987A674C9E
:10411800FF2800F0B180E47A00F0030544EA0524A2
:10412800C0F383006500814200F0AE80A5F580658C
:10413800946924F81050187B5C4CFF2800F0978095
:10414800647B00F0030544EA0524C0F3830065009E
:10415800814200F09680A5F58065946924F8105096
:10416800987B524CFF287DD0E47B00F0030544EA9D
:104178000524C0F383006500814200F08B80A5F51B
:104188008065946924F81050187C484CFF2865D045
:10419800647C00F0030544EA0524C0F3830065004D
:1041A800814274D0A5F58065946924F810509B7CF1
:1041B8003E48FF2BC07C43D003F0030440EA0420B0
:1041C800C3F383034000926999420CBFA0F5A9711B
:1041D800A0F5806122F81310012043E6E579FF2D50
:1041E8007FF456AE002062E6FF2C7FF4CFAE39E6AE
:1041F8006D7CFF2D7FF4B5AEC2E6ED7BFF2D7FF41D
:104208009BAEA8E66D7BFF2D7FF481AE8EE6ED7A3E
:10421800FF2D7FF467AE74E66D7AFF2D7FF44DAE07
:104228005AE6A0F5A97568E6A0F5A97550E6A0F5C7
:10423800A9758CE6A0F5A97574E6A0F5A9759BE6A5
:10424800FF28B9D101200DE6647AFF2C7FF44FAF27
:104258005CE7E479FF2C7FF435AF42E7647CFF2C00
:1042680097D1A4E7E47BFF2C7FF47FAF8CE7647BD6
:10427800FF2C7FF466AF73E7E47AFF2C7FF44CAF32
:1042880059E7A5F5A97568E7A5F5A97550E7A5F556
:10429800A97589E7A5F5A97573E7A5F5A97532E7A5
:1042A800A5F5A9751AE700BF90A0001018A900107D
:1042B8004FF44062C4F200020E4B526A30B41C68DC
:1042C80041F64C55141BAC4201D900241C751C7DC9
:1042D8001A60621C1B19D4B2102C1971054903D03D
:1042E8000C75002030BC704700230B7530BCFFF7FD
:1042F8007BBD00BF18A9001030B50446182283B052
:104308000D460E48002130F0C5FD237F0022072B03
:1043180009D0009228464FF4E1314023FCF760FEB3
:10432800606003B030BD40F6BE3100922846C0F24E
:1043380002014023FCF754FE6060F2E718A9001060
:104348002DE9F0472DED028B714B9A8918885F880B
:104358009E88DD881C895989C3F8D821C3F8C00113
:1043680003F5E07EC3F8C471C3F8C861C3F8CC5143
:10437800C3F8D041C3F8D41103F10E0223E0D18968
:104388004018C3F8C001BCF802104144C3F8C41176
:10439800BCF80410CF19C3F8C871BCF806108E1900
:1043A800C3F8CC61BCF808707D19C3F8D051BCF8CB
:1043B8000A100C19C3F8D441BCF80C6006EB0907C5
:1043C800C3F8D8711C32B2F800C0D3F8C411D3F8BE
:1043D800C871D3F8CC61D3F8D051D3F8D441DFF801
:1043E80030A16044C3F8C001B2F802808844C3F821
:1043F800C481B2F804904F44C3F8C871B2F806C03B
:104408006644C3F8CC6111894D19C3F8D051B2F88C
:104418000A90D3F8D8114C44C3F8D441B2F80C90A0
:1044280002F10E0C8944F445C3F8D891A7D12DF0B8
:1044380081FF35A3D3E900232EF032FA2EF0AEF82F
:10444800CAF8DC0140462DF075FF2FA3D3E90023FD
:104458002EF026FA2EF0A2F808EE100A38468AED59
:10446800788A2DF067FF28A3D3E900232EF018FAE5
:104478002EF094F8CAF8E40130462DF05BFF22A331
:10448800D3E900232EF00CFA2EF088F8CAF8E801D8
:1044980028462DF04FFF1CA3D3E900232EF000FA85
:1044A8002EF07CF8CAF8EC0120462DF043FF16A345
:1044B800D3E900232EF0F4F92EF070F8CAF8F001D1
:1044C80048462DF037FF10A3D3E900232EF0E8F972
:1044D8002EF064F89AF80532CAF8F4010AEB830062
:1044E80090ED777ADAED827ADFED0A0A27EE270A6D
:1044F80028EE208A8AED7E0A8AED7F8ABDEC028B3F
:10450800BDE8F087AFF30080000000606666FA3E01
:104518003C09002055551541744B2DE9F04FD3ED5A
:10452800007ABDEEE70A2DED028B10EE100A704DF1
:1045380000224FF0804101289BB085F80522C5F87C
:10454800081200F0D68101214FF4807029F07EFC1A
:1045580046F27040C4F2020042F24C0629F002F81A
:10456800C4F201060D954FF48063E02546F27040D1
:1045780000244FF4006204274FF00308C4F202003D
:104588000BA90C960F9511934FF400564FF4003376
:104598004FF48075129215930B940E941094139601
:1045A8001495169718941994CDF85C8029F0D0F8D2
:1045B80046F270400121C4F2020029F01FF90DEB08
:1045C800070028F0C3FD0DEB07000194029428F0C2
:1045D800A5FD05A828F098FD4FF4005007250126F1
:1045E800C4F2010005A905948DF818608DF81960CA
:1045F800079409948DF8285028F05EFD4FF4005078
:104608000A2132462B46C4F2010028F0AFFD4FF4D0
:1046180000500B2102222B46C4F2010028F0A6FD0F
:104628004FF400500A212B46C4F20100424628F0FC
:104638009DFD4FF4005039463A462B46C4F201001E
:1046480028F094FD05214FF400500A462B46C4F289
:10465800010028F08BFD06214FF400500A462B4636
:10466800C4F2010028F082FD4FF400502A462B4680
:104678002946C4F2010028F079FD4FF40050314674
:10468800C4F2010028F0D0FD4FF400503146C4F2C6
:10469800010028F0BFFD4FF400503146C4F201007C
:1046A80028F05AFD4FF40050114CC4F2010028F0D4
:1046B800ABFD0A2021F026FAA38920886788A688FE
:1046C800E58821896289C4F8D831C4F8C00104F5A5
:1046D800E07EC4F8C471C4F8C861C4F8CC51C4F809
:1046E800D011C4F8D42104F10E0321E024A5001050
:1046F8003C090020DA898018C4F8C0014A884A4475
:10470800C4F8C4218A884244C4F8C821CA88D71981
:10471800C4F8CC710A899619C4F8D0614F897D19FB
:10472800C4F8D451898901EB0A02C4F8D8211C3392
:10473800B3F800C0D4F8C421D4F8C871D4F8CC6157
:10474800D4F8D051D4F8D411DFF8F0B16044C4F8EB
:10475800C001B3F802909144C4F8C491B3F804A01E
:10476800D4F8D8210AEB0708C4F8C881DF88BF1934
:10477800C4F8CC711E897619C4F8D0615D896D18AA
:10478800C4F8D451B3F80CC003F10E010CEB020AC3
:104798007145C4F8D8A1ADD12DF0CCFD65A3D3E9FE
:1047A80000232EF07DF82DF0F9FECBF8DC01484609
:1047B8002DF0C0FD5FA3D3E900232EF071F82DF092
:1047C800EDFE08EE100A40468BED788A2DF0B2FD1A
:1047D80058A3D3E900232EF063F82DF0DFFECBF8C1
:1047E800E40138462DF0A6FD52A3D3E900232EF0AC
:1047F80057F82DF0D3FECBF8E80130462DF09AFD9E
:104808004CA3D3E900232EF04BF82DF0C7FECBF8CC
:10481800EC0128462DF08EFD46A3D3E900232EF0A7
:104828003FF82DF0BBFECBF8F00150462DF082FD8D
:1048380040A3D3E900232EF033F82DF0AFFE9BF808
:104848000532CBF8F4010BEB830090ED777ADBEDC2
:10485800820ADFED331A27EE201AB1EE042A28EE79
:10486800218AB4EEC21AF1EE10FA8BED7E1A8BEDA6
:104878007F8A3AD4F2EE012AB4EEE21AF1EE10FA87
:104888001FD49FED283AB4EEC31AF1EE10FA3DD4C6
:10489800F3EE013AB4EEE31AF1EE10FA32D49FEDDA
:1048A800224AB4EEC41AF1EE10FA33D4DFED1F4AEF
:1048B800B4EEE41AF1EE10FA06D506258BF8045288
:1048C80002E002208BF8040200F036FF4021054682
:1048D800174A94F9043230F06FF8284600F03EFF8A
:1048E8001BB0BDEC028BBDE8F08F01258BF804529C
:1048F800EAE745F25554C4F21514C5F8084285F89C
:10490800050220E604228BF80422DDE703238BF856
:104918000432D9E705218BF80412D5E7AFF30080FC
:1049280055551541CDCC4C416666AA416666CE41C7
:10493800B8890308000000606666FA3E3C0900205A
:104948002DE9F04F2DED088BD548DFF884A3D54E1F
:10495800DFF88093D44DD54CDFF87C8391B000F01C
:10496800FDFED3480023DFEDD38A9FEDD3BADFEDF8
:10497800D3AA9FEDD39A9FEDD3AADFEDD39AADF8D2
:104988001030ADF81230ADF81430A0F2044B25E128
:10499800D9ED037ABDEEE70AD6F8D80010EE101A62
:1049A80030F9112007EE102AD9ED190AB8EEC71A06
:1049B800B4EEE01AF1EE10FA04DC95F84005002890
:1049C80000F0D981012010F075FD95F84075B649C1
:1049D800002F40F08381D9ED031ABDEEE12AD6F805
:1049E800D83012EE100A33F9102008EE102AD9ED4B
:1049F800192AB8EE483AD9ED133A33EE624A64EE12
:104A08000A4A84EEA95A65EE235AFDEEE57A17EEB6
:104A1800907A002F40F3898140F6FF729742A8BF31
:104A2800174600EE107AB8EEC08A4AF24463C1F223
:104A38000003D3EDAA0AF5EE400AF1EE10FA00F0F1
:104A4800F38094ED080AD5ED030A0CF0ADF999ED61
:104A58001B7AB1EE471AC1EE281AB4EEE10AF1EE5C
:104A680010FA08D4C7EE281AB4EEE10AF1EE10FAEB
:104A7800D8BFF0EE401A94ED082A31EE820A0CF005
:104A880073F995F84035894A032B84ED080A00F03C
:104A98005F81D9ED052A99ED043AFDEEE23AD6F8A0
:104AA800D81013EE907ABDEEC34A31F9170014EE10
:104AB800107A31F9171004EE900A05EE101AF8EE84
:104AC800E45A99ED146AF8EEC5BAD9ED156A25EEDF
:104AD800860A6BEEA67A012B82ED020AC2ED037AF2
:104AE80040F23B81A86AEA6A20616261D9ED060A50
:104AF800BDEEE07AD6F8D87017EE101A37F9110023
:104B080001EE100AD9ED172AF8EEC11AF4EEE21AEE
:104B1800F1EE10FA76DD71EEE22A99ED163A62EEC0
:104B2800833A634823EE8B4A90ED001A64EE2A4AD2
:104B38004FF4967284ED081ACDED084A85ED031AF4
:104B4800ADF81420012B0CA840F20C8194ED050A55
:104B5800D4ED040A25F0E4FB4AF24463C1F20003F1
:104B680093EDAA5AB5EE405AF1EE10FA00F0E08043
:104B7800DBF81804554FD0ED096AD7ED00BAD0ED2F
:104B88000B7AD7ED015A90ED0A0A97ED026A35EED5
:104B9800807A7BEEA60A36EE271A04AF30300CA9CD
:104BA80009AA06AB0097CDED090A8DED0A7A8DEDBD
:104BB8000B1A2BF077FFB0EE480A2CF097F8FEF7A7
:104BC800C5F84AF24460C1F2000080EDAA8A616823
:104BD800D8F820304A1CC4F89C30626000219AF84A
:104BE800000020F019F84CF22061C1F2000191F8A0
:104BF800C02102F00407FBB2002B7FF4C9AEFEF718
:104C080089F9E4E7B1EE622AF4EEC21AF1EE10FA7D
:104C180040F1B680F4EEE21AF1EE10FAD8BF71EE68
:104C2800A22A7FF77AAF76E72149D4F888000F687F
:104C38009FED230AF0EE400AEF60276205F05CFC66
:104C48009FED1F0AD4F88400F0EE400A05F054FCEA
:104C58009FED1B0AD4F88C00F0EE400A05F04CFCDE
:104C68009FED170AD4F89400F0EE400A05F044FCD2
:104C78009FED130AD4F89000F0EE400A05F03CFCD2
:104C88009FED0F0AD4F89800F0EE400A05F034FCC6
:104C980095F8400502287FF4D4AE11F093F8D0E6D9
:104CA800CC89030830C9001060BB001030A900107F
:104CB8003C1700200000C84335FA8E3CE73EBB3A5B
:104CC8000000000000F07F4500002F44D439012087
:104CD8000CC6001090A0001000CD00104CF2E47734
:104CE800C1F20007C86CD7F8483193ED006A91ED1E
:104CF8000C0AF1EE460A039105F01EFB0399C86CF5
:104D0800D0ED02BA60EE0A6AF5EEC0BAF1EE10FA1A
:104D1800C6EEA95A7FF579AEFDEEE57A80ED029AE6
:104D280017EE907A002F3FF777AEB7EE008A7CE651
:104D3800DBF81874D7F830E0796BBA6BFB6BCDF8F9
:104D480030E00CA80D910E920F932BF07FFA0FE72D
:104D580082ED029A82ED039AC4E682ED049A82ED0E
:104D6800059AC3E6B0EE410AD4ED020A94ED031A9F
:104D780025F082FAF0E610F09DFBFEF7CBF826E767
:104D8800BDF8142012B994ED081ADBE6064F97ED2A
:104D9800001A511E84ED081A85ED031A8DED089A44
:104DA800ADF81410CEE600BF3C1700202DE9F04FF7
:104DB8002DED048B4AF6301848F6E4108BB0C1F29A
:104DC80000089FED838AC0F6030000F0C7FCDFED02
:104DD800818A0021A0229FED809A404630F05AF83F
:104DE800B0EE480ADFED7D0A2AF070FD08F12400D4
:104DF800B0EE480AF0EE490AB0EE681A784CFBF7B4
:104E080083FD08F13C00B0EE480AF0EE490AB0EE26
:104E1800681AFBF779FD08F15400B0EE480AF4EE81
:104E2800000AB0EE681AFBF76FFD04F1040BB0EE50
:104E3800480AF4EE000AB0EE681A08F16C00FBF7B5
:104E480063FD04F114070BF10C00002604F1080AB5
:104E580004F10C0904F11C058DE881000BF1140024
:104E6800594652464B4602900395204604960596AD
:104E78000696079605F03EFAC8F888000BF10C0074
:104E88008DE881000BF11407594652464B460297AC
:104E980003952046049605960696079605F02AFA85
:104EA80004F1340704F1300E04F1380C04F13C0528
:104EB800CDF800E004F1240104F1280204F12C03E8
:104EC800C8F884000197CDF808C0039504F12000C4
:104ED800049605960696079605F00CFA04F1440C1C
:104EE800C8F88C000CF1100004F1400504F15807D3
:104EF80004F1480B04F14C0A04F1500901900CF13B
:104F0800180061465A46534602970390CDF8009020
:104F180028460496059606960796CDF824C005F00F
:104F2800E9F9DDF824C0C8F8940002970CF11000E4
:104F38000CF1180761465A465346019003972846D4
:104F4800CDF80090049605960696079605F0D2F9D6
:104F580004F17C0504F1700E04F1780C04F1740777
:104F680004F1680204F16C0304F16401CDF800E077
:104F7800CDF808C0C8F89000039504F160000197C7
:104F8800049605960696079605F0B4F948F6F411C6
:104F9800C8F89800C0F60301C820FBF765FB40F687
:104FA80048340546C2F2000444F64910C0F6000031
:104FB80031464CF6050205F54773256020F064FC80
:104FC80088F800000BB0BDEC048BBDE8F08F00BF83
:104FD8000AD7233B00000000CDCCCC3D0AD7A33B29
:104FE80000A1001070B5214B1A1802F5885500EB86
:104FF80040062C7802F5875204EB4401F60106EBD3
:105008008106117E06F59D66A14282B01E4404D039
:10501800127C012A14D0022A01D002B070BD03EB21
:105028008000D0F88404418903890AB219B28A42FF
:10503800F3D1716832890E4B009619F00DFF0FE01D
:1050480003EB8000D0F8840490F84C30002BE4D1B6
:1050580071683289064B0096FBF742FE0028DCD0C7
:10506800013404F01F042C70D7E700BFD0A900104A
:105078007D5000080368BFF35F8FD3E84F2F013AD4
:10508800C3E8412F0029F8D1D2B2022ABFF35F8FBB
:1050980001D100211970807AFFF7A4BF2DE9F04FE4
:1050A800B64DB74F93B005F5875B05F58C56079657
:1050B800CDF824B0CDF804B0CDF828B05B460799F8
:1050C800099C019ACDF808B003F1110A0A9BCDF8A2
:1050D8002CB05846CDF80CB0CDF830B0CDF810B0A3
:1050E8000F310830093412320A33079108900B99AE
:1050F800029809940192039C0C9A0A93049BCDF898
:1051080034B013300B3114340C321533CDF814B0DD
:10511800CDF838B0CDF818B0CDF83CB002900B916E
:1051280003940C9204930D9805990E9C069A0F9B74
:105138000E340D30163117320F330E944FF000082D
:1051480008360BF1100B0D90059106920F932C4623
:10515800012020F0D7FCA8780DF1470120F094F841
:105168008146002846D001783068CE4629B917E034
:10517800184633601EF8011F91B140F2FF13421C1C
:10518800C8F200030A2903EA0203F3D0002B3954BA
:10519800EEDA581E6FEAC0516FEAD1530133E7E7E0
:1051A80040F2FF11421CC8F2000111400A230029F5
:1051B8003B54C0F27982079B316093F9000014F0E8
:1051C800B9F9D5F8A41409B148468847D5F8A824F0
:1051D8000AB148469047D5F8AC340BB148469847D1
:1051E800D5F8B01409B148468847D5F8B4240AB1AF
:1051F800484690474CF2E470C1F2000040781FF036
:10520800E5FC98B9D5F8B83403B19847D5F8BC147B
:1052180001B18847D5F8C02402B19047D5F8C40435
:1052280000B18047D5F8C83403B19847404619F013
:105238003DF89BF80010002202298DF8442000F068
:105248002B82032900F02582012900F0F6819AF8C3
:105258000000012302288DF8443000F0E68103287D
:1052680000F0E081012800F0AF81019B187802214D
:1052780088428DF8441000F09F81032800F099813E
:10528800012800F06681029803780322022B8DF82A
:10529800442000F05681032B00F05081012B00F0D0
:1052A8001D81039A1078042102288DF8441000F01B
:1052B8000D81032800F00781012800F0D4800499AB
:1052C8000878052302288DF8443000F0C4800328AC
:1052D80000F0BE80012800F08B8005980178062236
:1052E80002298DF844207CD0032977D0012949D0A0
:1052F800069A1078072302288DF8443037D00328FF
:1053080032D0012804D019F0C7FC08F101081FE7C2
:10531800D4F8A0040028F6D0FCF70CF80028F2D046
:105328000F9908780028EED094F8CC24824200F037
:10533800C88194F8CD34834200F0C18194F8CE142A
:10534800814200F0F68194F8CF24824200F0EF8188
:1053580094F8D0348342D6D1042005EB800111A8FB
:10536800D1F8D4249047CEE71CF0B8FAD6E7D4F8A1
:10537800A0040028C7D019F02FFCCFE7D0A900104F
:10538800500B0020D4F89C040028B1D0FBF7D2FFC2
:105398000028ADD00E9B18780028A9D094F8CC141A
:1053A800814200F0888194F8CD24824200F0858102
:1053B80094F8CE34834200F0B88194F8CF14814237
:1053C80000F0AB8194F8D024824291D1042005EBFF
:1053D800800311A8D3F8D414884789E71CF07EFA13
:1053E800D6E7D4F89C04002882D019F0F5FBCFE763
:1053F800D4F8980400283FF470AFFBF79BFF00280F
:105408003FF46BAF0D9A117800293FF466AF94F81A
:10541800CC04884200F06D8194F8CD348B4200F0C2
:10542800668194F8CE248A4200F06B8194F8CF0408
:10543800884200F0648194F8D0348B427FF44DAFF9
:10544800042105EB810211A8D2F8D434984744E727
:105458001CF044FAD3E7D4F8980400283FF43DAF91
:1054680019F0BAFBCBE7D4F8940400283FF427AF2F
:10547800FBF760FF00283FF422AF0C9B1878002848
:105488003FF41DAF94F8CC24824200F0228194F8B6
:10549800CD14814200F01B8194F8CE34834200F091
:1054A8003A8194F8CF24824200F0278194F8D014EE
:1054B80081427FF404AF042005EB800311A8D3F8E0
:1054C800D4249047FBE61CF009FAD3E7D4F89404F7
:1054D80000283FF4F4AE19F07FFBCBE7D4F8900432
:1054E80000283FF4DEAEFBF725FF00283FF4D9AED5
:1054F8000B99087800283FF4D4AE94F8CC34834252
:1055080000F0E38094F8CD24824200F0DC8094F827
:10551800CE14814200F0058194F8CF34834200F024
:10552800FE8094F8D02482427FF4BBAE042005EBC1
:10553800800111A8D1F8D4349847B2E61CF0CEF90E
:10554800D3E7D4F8900400283FF4ABAE19F044FB3D
:10555800CBE7D4F88C0400283FF495AEFBF7EAFEBD
:1055680000283FF490AE0A9A1378002B3FF48BAED4
:1055780094F8CC04984200F0B88094F8CD1499427D
:1055880000F0B18094F8CE249A4200F0B48094F8E8
:10559800CF04984200F0B98094F8D01499427FF46F
:1055A80072AE042305EB830211A8D2F8D4148847FD
:1055B80069E61CF093F9D3E7D4F88C0400283FF48B
:1055C80062AE19F009FBCBE7D4F8880400283FF451
:1055D8004CAEFBF7AFFE00283FF447AE09990878B8
:1055E80000283FF442AE94F8CC24824279D094F853
:1055F800CD34834273D094F8CE14814200F0898070
:1056080094F8CF24824200F0828094F8D034834208
:105618007FF42BAE042005EB800111A8D1F8D42427
:10562800904722E61CF05AF9D5E7D4F888040028F8
:105638003FF41BAE19F0D0FACDE7D4F88404002863
:105648003FF405AEFBF776FE00283FF400AE08985D
:105658000378002B3FF4FBAD94F8CC1499423CD06E
:1056680094F8CD249A4236D094F8CE0498424AD081
:1056780094F8CF14994256D094F8D0249A427FF4E3
:10568800E6AD042305EB830111A8D1F8D424904793
:10569800DDE51CF023F9D7E7D4F8840400283FF4AB
:1056A800D6AD19F099FACFE7481E6FEAC0516FEAF4
:1056B800D152511C7FE5002089E6012087E60120B0
:1056C8004BE6002049E6012031E700202FE70120C2
:1056D800F2E60020F0E60123D4E70023D2E7012018
:1056E80099E7002097E701235CE700235AE70121A7
:1056F800A7E60021A5E6022354E70320DCE6032100
:105708009FE602219DE60223BCE703234AE7032024
:1057180081E702207FE70220CEE6032057E6032038
:1057280005E7022003E70323ACE702204FE6032046
:1057380013E6022011E600BF71B64AF6D013C1F293
:10574800000303F58C514A7B501C487361B602F084
:105758000F0103EB81108430704700BF054B03F540
:105768008C52014692F90E0000B9704798781FF0E4
:10577800B5BD00BFD0A90010014B197B0840704788
:1057880050BB00100E4BD3F8A4246AB1D3F8A82458
:105798007AB1D3F8AC1471B1D3F8B0241AB1D3F8F4
:1057A800B41451B17047032203EB8203C3F8A40475
:1057B80070470122F8E70222F6E70422F4E700BF67
:1057C800D0A900100E4BD3F8B8246AB1D3F8BC2482
:1057D8007AB1D3F8C01471B1D3F8C4241AB1D3F88C
:1057E800C81451B17047032202F5977143F821009C
:1057F80070470122F8E70222F6E70422F4E700BF27
:10580800D0A9001010B4104B93F8CC2472B193F8BF
:10581800CD249AB193F8CE2492B193F8CF2422B133
:1058280093F8D02472B110BC704703229C1803EB84
:10583800820384F8CC04C3F8D414F4E70122F5E712
:105848000222F3E70422F1E7D0A9001008B5134AB1
:105858000178531803F58750037C022B13D0032BD0
:105868000DD0012B01D0002008BD02EB8101D1F839
:1058780084040028F8D0FBF76BFDC0B208BDBDE872
:1058880008401CF037B802EB8102D2F884040028E3
:10589800EAD0BDE8084019F0A7B900BFD0A90010A8
:1058A80001780F4A531803F58750037C022B0FD059
:1058B800032B0BD0012B01D00020704702EB810194
:1058C800D1F884040028F7D0FBF734BD1CF006B8E3
:1058D80002EB8102D2F884040028EDD019F07CB9DB
:1058E800D0A900102DE9F04FDFF8409109F58C534D
:1058F8008246187B1AEA000283B026D009F58A533B
:105908009888884223D2DA888A427ED218898842C7
:105918007ED25A898A4280F08480988988427DD2D2
:10592800DB898B4277D299F801001FF075FB99F853
:1059380001001FF0E3FB3C48836800215A1C826089
:105948000191019803B0BDE8F08F0192F9E74FF09B
:10595800000899F801001FF05FFB09EB880E0EF5AF
:105968008951002001F10C0E09EB480B019009EB5D
:10597800080C0CF58A5C9CF810501DB30BEB000466
:10598800DEF82C1004F58A520B7894880834A3B3F7
:105998000A190023E90710D40123AB4210DA16785C
:1059A800114612194EB928E016781146171926B370
:1059B800165D394601333A19FEB10133AB42F3DBC8
:1059C8009D420AD1DEF8004008F10108611C02304E
:1059D800B8F1060F4EF8041BC9D199F80100134C11
:1059E8001FF08CFB019B002BA5D008F25C4854F8F3
:1059F8002820511C44F82810A3E701250D7081F8D0
:105A080006A09CF810500191DAE74FF00108A0E7D2
:105A18004FF002089DE74FF005089AE74FF0040899
:105A280097E74FF0030894E7F0BA0010D0A90010E8
:105A3800F0B5054685B00F46002866D0C14E022352
:105A4800037006F5875470781FF0E6FA217AAB796F
:105A5800002299428DF8002000F0EC80607AB94964
:105A68004FF0000C98428DF801C001F5875E00F0F8
:105A78003B81A07AB3494FF0000E98428DF802E0BE
:105A880001F5875C00F00281E07AAE494FF0000E24
:105A980098428DF803E001F5875C00F0DE81207BF9
:105AA800A8494FF0000E98428DF804E001F5875C94
:105AB80000F0A681607BA3494FF0000E98428DF854
:105AC80005E001F5875C00F06D81A07B9D494FF0F2
